{"abi":[{"type":"constructor","inputs":[],"stateMutability":"nonpayable"},{"type":"function","name":"addVerifier","inputs":[{"name":"_verifier","type":"address","internalType":"address"}],"outputs":[],"stateMutability":"nonpayable"},{"type":"function","name":"isUserVerified","inputs":[{"name":"_user","type":"address","internalType":"address"}],"outputs":[{"name":"","type":"bool","internalType":"bool"}],"stateMutability":"view"},{"type":"function","name":"isVerified","inputs":[{"name":"","type":"address","internalType":"address"}],"outputs":[{"name":"","type":"bool","internalType":"bool"}],"stateMutability":"view"},{"type":"function","name":"owner","inputs":[],"outputs":[{"name":"","type":"address","internalType":"address"}],"stateMutability":"view"},{"type":"function","name":"removeVerifier","inputs":[{"name":"_verifier","type":"address","internalType":"address"}],"outputs":[],"stateMutability":"nonpayable"},{"type":"function","name":"renounceOwnership","inputs":[],"outputs":[],"stateMutability":"nonpayable"},{"type":"function","name":"revokeVerfication","inputs":[{"name":"_user","type":"address","internalType":"address"}],"outputs":[],"stateMutability":"nonpayable"},{"type":"function","name":"transferOwnership","inputs":[{"name":"newOwner","type":"address","internalType":"address"}],"outputs":[],"stateMutability":"nonpayable"},{"type":"function","name":"userInfos","inputs":[{"name":"","type":"address","internalType":"address"}],"outputs":[{"name":"name","type":"string","internalType":"string"},{"name":"country","type":"string","internalType":"string"},{"name":"verificationTime","type":"uint256","internalType":"uint256"},{"name":"documentHash","type":"bytes32","internalType":"bytes32"}],"stateMutability":"view"},{"type":"function","name":"verifyUser","inputs":[{"name":"_user","type":"address","internalType":"address"},{"name":"_name","type":"string","internalType":"string"},{"name":"_country","type":"string","internalType":"string"},{"name":"_documentHash","type":"bytes32","internalType":"bytes32"}],"outputs":[],"stateMutability":"nonpayable"},{"type":"event","name":"OwnershipTransferred","inputs":[{"name":"previousOwner","type":"address","indexed":true,"internalType":"address"},{"name":"newOwner","type":"address","indexed":true,"internalType":"address"}],"anonymous":false},{"type":"event","name":"UserVerified","inputs":[{"name":"user","type":"address","indexed":true,"internalType":"address"},{"name":"name","type":"string","indexed":false,"internalType":"string"},{"name":"country","type":"string","indexed":false,"internalType":"string"},{"name":"documentHash","type":"bytes32","indexed":false,"internalType":"bytes32"}],"anonymous":false},{"type":"event","name":"VerifierAdded","inputs":[{"name":"verifier","type":"address","indexed":true,"internalType":"address"}],"anonymous":false},{"type":"event","name":"VerifierRemoved","inputs":[{"name":"verifier","type":"address","indexed":true,"internalType":"address"}],"anonymous":false},{"type":"error","name":"OwnableInvalidOwner","inputs":[{"name":"owner","type":"address","internalType":"address"}]},{"type":"error","name":"OwnableUnauthorizedAccount","inputs":[{"name":"account","type":"address","internalType":"address"}]}],"bytecode":{"object":"0x608060405234801561000f575f80fd5b50335f73ffffffffffffffffffffffffffffffffffffffff168173ffffffffffffffffffffffffffffffffffffffff1603610081575f6040517f1e4fbdf70000000000000000000000000000000000000000000000000000000081526004016100789190610196565b60405180910390fd5b6100908161009660201b60201c565b506101af565b5f805f9054906101000a900473ffffffffffffffffffffffffffffffffffffffff169050815f806101000a81548173ffffffffffffffffffffffffffffffffffffffff021916908373ffffffffffffffffffffffffffffffffffffffff1602179055508173ffffffffffffffffffffffffffffffffffffffff168173ffffffffffffffffffffffffffffffffffffffff167f8be0079c531659141344cd1fd0a4f28419497f9722a3daafe3b4186f6b6457e060405160405180910390a35050565b5f73ffffffffffffffffffffffffffffffffffffffff82169050919050565b5f61018082610157565b9050919050565b61019081610176565b82525050565b5f6020820190506101a95f830184610187565b92915050565b61125780620001bd5f395ff3fe608060405234801561000f575f80fd5b506004361061009c575f3560e01c8063ace417e011610064578063ace417e014610133578063b9209e3314610163578063ca2dfd0a14610193578063da1cc16d146101af578063f2fde38b146101cb5761009c565b80633fc3c01b146100a057806343b0215f146100bc578063715018a6146100ef5780638da5cb5b146100f95780639000b3d614610117575b5f80fd5b6100ba60048036038101906100b59190610c37565b6101e7565b005b6100d660048036038101906100d19190610cd3565b6103f8565b6040516100e69493929190610d9f565b60405180910390f35b6100f7610530565b005b610101610543565b60405161010e9190610dff565b60405180910390f35b610131600480360381019061012c9190610cd3565b61056a565b005b61014d60048036038101906101489190610cd3565b61060c565b60405161015a9190610e32565b60405180910390f35b61017d60048036038101906101789190610cd3565b61065e565b60405161018a9190610e32565b60405180910390f35b6101ad60048036038101906101a89190610cd3565b61067b565b005b6101c960048036038101906101c49190610cd3565b61071d565b005b6101e560048036038101906101e09190610cd3565b61088a565b005b6101ef610543565b73ffffffffffffffffffffffffffffffffffffffff163373ffffffffffffffffffffffffffffffffffffffff16148061026e575060015f3373ffffffffffffffffffffffffffffffffffffffff1673ffffffffffffffffffffffffffffffffffffffff1681526020019081526020015f205f9054906101000a900460ff165b6102ad576040517f08c379a00000000000000000000000000000000000000000000000000000000081526004016102a490610e95565b60405180910390fd5b60405180608001604052808481526020018381526020014281526020018281525060025f8673ffffffffffffffffffffffffffffffffffffffff1673ffffffffffffffffffffffffffffffffffffffff1681526020019081526020015f205f820151815f01908161031e91906110ad565b50602082015181600101908161033491906110ad565b5060408201518160020155606082015181600301559050506001805f8673ffffffffffffffffffffffffffffffffffffffff1673ffffffffffffffffffffffffffffffffffffffff1681526020019081526020015f205f6101000a81548160ff0219169083151502179055508373ffffffffffffffffffffffffffffffffffffffff167f752897be8a3fa88607a29e8876a8fd017b675c4f791d24bebc9f5940f5207f708484846040516103ea9392919061117c565b60405180910390a250505050565b6002602052805f5260405f205f91509050805f01805461041790610ee0565b80601f016020809104026020016040519081016040528092919081815260200182805461044390610ee0565b801561048e5780601f106104655761010080835404028352916020019161048e565b820191905f5260205f20905b81548152906001019060200180831161047157829003601f168201915b5050505050908060010180546104a390610ee0565b80601f01602080910402602001604051908101604052809291908181526020018280546104cf90610ee0565b801561051a5780601f106104f15761010080835404028352916020019161051a565b820191905f5260205f20905b8154815290600101906020018083116104fd57829003601f168201915b5050505050908060020154908060030154905084565b61053861090e565b6105415f610995565b565b5f805f9054906101000a900473ffffffffffffffffffffffffffffffffffffffff16905090565b61057261090e565b6001805f8373ffffffffffffffffffffffffffffffffffffffff1673ffffffffffffffffffffffffffffffffffffffff1681526020019081526020015f205f6101000a81548160ff0219169083151502179055508073ffffffffffffffffffffffffffffffffffffffff167f6d05492139c5ea989514a5d2150c028041e5c087e2a39967f67dc7d2655adb8160405160405180910390a250565b5f60015f8373ffffffffffffffffffffffffffffffffffffffff1673ffffffffffffffffffffffffffffffffffffffff1681526020019081526020015f205f9054906101000a900460ff169050919050565b6001602052805f5260405f205f915054906101000a900460ff1681565b61068361090e565b5f60015f8373ffffffffffffffffffffffffffffffffffffffff1673ffffffffffffffffffffffffffffffffffffffff1681526020019081526020015f205f6101000a81548160ff0219169083151502179055508073ffffffffffffffffffffffffffffffffffffffff167f44a3cd4eb5cc5748f6169df057b1cb2ae4c383e87cd94663c430e095d4cba42460405160405180910390a250565b610725610543565b73ffffffffffffffffffffffffffffffffffffffff163373ffffffffffffffffffffffffffffffffffffffff1614806107a4575060015f3373ffffffffffffffffffffffffffffffffffffffff1673ffffffffffffffffffffffffffffffffffffffff1681526020019081526020015f205f9054906101000a900460ff165b6107e3576040517f08c379a00000000000000000000000000000000000000000000000000000000081526004016107da90610e95565b60405180910390fd5b5f60015f8373ffffffffffffffffffffffffffffffffffffffff1673ffffffffffffffffffffffffffffffffffffffff1681526020019081526020015f205f6101000a81548160ff0219169083151502179055508073ffffffffffffffffffffffffffffffffffffffff167f752897be8a3fa88607a29e8876a8fd017b675c4f791d24bebc9f5940f5207f705f801b60405161087f91906111e2565b60405180910390a250565b61089261090e565b5f73ffffffffffffffffffffffffffffffffffffffff168173ffffffffffffffffffffffffffffffffffffffff1603610902575f6040517f1e4fbdf70000000000000000000000000000000000000000000000000000000081526004016108f99190610dff565b60405180910390fd5b61090b81610995565b50565b610916610a56565b73ffffffffffffffffffffffffffffffffffffffff16610934610543565b73ffffffffffffffffffffffffffffffffffffffff161461099357610957610a56565b6040517f118cdaa700000000000000000000000000000000000000000000000000000000815260040161098a9190610dff565b60405180910390fd5b565b5f805f9054906101000a900473ffffffffffffffffffffffffffffffffffffffff169050815f806101000a81548173ffffffffffffffffffffffffffffffffffffffff021916908373ffffffffffffffffffffffffffffffffffffffff1602179055508173ffffffffffffffffffffffffffffffffffffffff168173ffffffffffffffffffffffffffffffffffffffff167f8be0079c531659141344cd1fd0a4f28419497f9722a3daafe3b4186f6b6457e060405160405180910390a35050565b5f33905090565b5f604051905090565b5f80fd5b5f80fd5b5f73ffffffffffffffffffffffffffffffffffffffff82169050919050565b5f610a9782610a6e565b9050919050565b610aa781610a8d565b8114610ab1575f80fd5b50565b5f81359050610ac281610a9e565b92915050565b5f80fd5b5f80fd5b5f601f19601f8301169050919050565b7f4e487b71000000000000000000000000000000000000000000000000000000005f52604160045260245ffd5b610b1682610ad0565b810181811067ffffffffffffffff82111715610b3557610b34610ae0565b5b80604052505050565b5f610b47610a5d565b9050610b538282610b0d565b919050565b5f67ffffffffffffffff821115610b7257610b71610ae0565b5b610b7b82610ad0565b9050602081019050919050565b828183375f83830152505050565b5f610ba8610ba384610b58565b610b3e565b905082815260208101848484011115610bc457610bc3610acc565b5b610bcf848285610b88565b509392505050565b5f82601f830112610beb57610bea610ac8565b5b8135610bfb848260208601610b96565b91505092915050565b5f819050919050565b610c1681610c04565b8114610c20575f80fd5b50565b5f81359050610c3181610c0d565b92915050565b5f805f8060808587031215610c4f57610c4e610a66565b5b5f610c5c87828801610ab4565b945050602085013567ffffffffffffffff811115610c7d57610c7c610a6a565b5b610c8987828801610bd7565b935050604085013567ffffffffffffffff811115610caa57610ca9610a6a565b5b610cb687828801610bd7565b9250506060610cc787828801610c23565b91505092959194509250565b5f60208284031215610ce857610ce7610a66565b5b5f610cf584828501610ab4565b91505092915050565b5f81519050919050565b5f82825260208201905092915050565b5f5b83811015610d35578082015181840152602081019050610d1a565b5f8484015250505050565b5f610d4a82610cfe565b610d548185610d08565b9350610d64818560208601610d18565b610d6d81610ad0565b840191505092915050565b5f819050919050565b610d8a81610d78565b82525050565b610d9981610c04565b82525050565b5f6080820190508181035f830152610db78187610d40565b90508181036020830152610dcb8186610d40565b9050610dda6040830185610d81565b610de76060830184610d90565b95945050505050565b610df981610a8d565b82525050565b5f602082019050610e125f830184610df0565b92915050565b5f8115159050919050565b610e2c81610e18565b82525050565b5f602082019050610e455f830184610e23565b92915050565b7f4e6f7420612076657269666965720000000000000000000000000000000000005f82015250565b5f610e7f600e83610d08565b9150610e8a82610e4b565b602082019050919050565b5f6020820190508181035f830152610eac81610e73565b9050919050565b7f4e487b71000000000000000000000000000000000000000000000000000000005f52602260045260245ffd5b5f6002820490506001821680610ef757607f821691505b602082108103610f0a57610f09610eb3565b5b50919050565b5f819050815f5260205f209050919050565b5f6020601f8301049050919050565b5f82821b905092915050565b5f60088302610f6c7fffffffffffffffffffffffffffffffffffffffffffffffffffffffffffffffff82610f31565b610f768683610f31565b95508019841693508086168417925050509392505050565b5f819050919050565b5f610fb1610fac610fa784610d78565b610f8e565b610d78565b9050919050565b5f819050919050565b610fca83610f97565b610fde610fd682610fb8565b848454610f3d565b825550505050565b5f90565b610ff2610fe6565b610ffd818484610fc1565b505050565b5b81811015611020576110155f82610fea565b600181019050611003565b5050565b601f8211156110655761103681610f10565b61103f84610f22565b8101602085101561104e578190505b61106261105a85610f22565b830182611002565b50505b505050565b5f82821c905092915050565b5f6110855f198460080261106a565b1980831691505092915050565b5f61109d8383611076565b9150826002028217905092915050565b6110b682610cfe565b67ffffffffffffffff8111156110cf576110ce610ae0565b5b6110d98254610ee0565b6110e4828285611024565b5f60209050601f831160018114611115575f8415611103578287015190505b61110d8582611092565b865550611174565b601f19841661112386610f10565b5f5b8281101561114a57848901518255600182019150602085019450602081019050611125565b868310156111675784890151611163601f891682611076565b8355505b6001600288020188555050505b505050505050565b5f6060820190508181035f8301526111948186610d40565b905081810360208301526111a88185610d40565b90506111b76040830184610d90565b949350505050565b50565b5f6111cd5f83610d08565b91506111d8826111bf565b5f82019050919050565b5f6060820190508181035f8301526111f9816111c2565b9050818103602083015261120c816111c2565b905061121b6040830184610d90565b9291505056fea26469706673582212201973951650150523bf3ed975368bd70eee409db1c05cdb34ccb3413dddeba5b764736f6c63430008180033","linkReferences":{}},"methodIdentifiers":{"addVerifier(address)":"9000b3d6","isUserVerified(address)":"ace417e0","isVerified(address)":"b9209e33","owner()":"8da5cb5b","removeVerifier(address)":"ca2dfd0a","renounceOwnership()":"715018a6","revokeVerfication(address)":"da1cc16d","transferOwnership(address)":"f2fde38b","userInfos(address)":"43b0215f","verifyUser(address,string,string,bytes32)":"3fc3c01b"},"id":102}