{"abi":[{"type":"constructor","inputs":[{"name":"_realEstateToken","type":"address","internalType":"address"},{"name":"_functionsRouterAddress","type":"address","internalType":"address"},{"name":"_realEstateKYC","type":"address","internalType":"address"},{"name":"_nftMetadataScript","type":"string","internalType":"string"},{"name":"_requestUrl","type":"string","internalType":"string"}],"stateMutability":"nonpayable"},{"type":"function","name":"acceptOwnership","inputs":[],"outputs":[],"stateMutability":"nonpayable"},{"type":"function","name":"approveIssue","inputs":[{"name":"requestId","type":"bytes32","internalType":"bytes32"},{"name":"status","type":"uint256","internalType":"uint256"}],"outputs":[],"stateMutability":"nonpayable"},{"type":"function","name":"handleOracleFulfillment","inputs":[{"name":"requestId","type":"bytes32","internalType":"bytes32"},{"name":"response","type":"bytes","internalType":"bytes"},{"name":"err","type":"bytes","internalType":"bytes"}],"outputs":[],"stateMutability":"nonpayable"},{"type":"function","name":"owner","inputs":[],"outputs":[{"name":"","type":"address","internalType":"address"}],"stateMutability":"view"},{"type":"function","name":"requestIssue","inputs":[{"name":"amount","type":"uint256","internalType":"uint256"},{"name":"subscriptionId","type":"uint64","internalType":"uint64"},{"name":"gasLimit","type":"uint32","internalType":"uint32"},{"name":"donID","type":"bytes32","internalType":"bytes32"}],"outputs":[{"name":"requestId","type":"bytes32","internalType":"bytes32"}],"stateMutability":"nonpayable"},{"type":"function","name":"setNftMetadataScript","inputs":[{"name":"_nftMetadataScript","type":"string","internalType":"string"}],"outputs":[],"stateMutability":"nonpayable"},{"type":"function","name":"transferOwnership","inputs":[{"name":"to","type":"address","internalType":"address"}],"outputs":[],"stateMutability":"nonpayable"},{"type":"event","name":"IssueApproved","inputs":[{"name":"requestId","type":"bytes32","indexed":true,"internalType":"bytes32"},{"name":"to","type":"address","indexed":true,"internalType":"address"},{"name":"status","type":"uint256","indexed":false,"internalType":"uint256"}],"anonymous":false},{"type":"event","name":"IssueRequested","inputs":[{"name":"requestId","type":"bytes32","indexed":true,"internalType":"bytes32"},{"name":"to","type":"address","indexed":true,"internalType":"address"},{"name":"amount","type":"uint256","indexed":false,"internalType":"uint256"}],"anonymous":false},{"type":"event","name":"OwnershipTransferRequested","inputs":[{"name":"from","type":"address","indexed":true,"internalType":"address"},{"name":"to","type":"address","indexed":true,"internalType":"address"}],"anonymous":false},{"type":"event","name":"OwnershipTransferred","inputs":[{"name":"from","type":"address","indexed":true,"internalType":"address"},{"name":"to","type":"address","indexed":true,"internalType":"address"}],"anonymous":false},{"type":"event","name":"RequestFulfilled","inputs":[{"name":"id","type":"bytes32","indexed":true,"internalType":"bytes32"}],"anonymous":false},{"type":"event","name":"RequestSent","inputs":[{"name":"id","type":"bytes32","indexed":true,"internalType":"bytes32"}],"anonymous":false},{"type":"error","name":"EmptyArgs","inputs":[]},{"type":"error","name":"EmptySource","inputs":[]},{"type":"error","name":"LatestIssueInProgress","inputs":[]},{"type":"error","name":"NoInlineSecrets","inputs":[]},{"type":"error","name":"OnlyRouterCanFulfill","inputs":[]}],"bytecode":{"object":"0x60e060405234801562000010575f80fd5b50604051620036f6380380620036f6833981810160405281019062000036919062000512565b33805f868073ffffffffffffffffffffffffffffffffffffffff1660808173ffffffffffffffffffffffffffffffffffffffff1681525050505f73ffffffffffffffffffffffffffffffffffffffff168273ffffffffffffffffffffffffffffffffffffffff1603620000e0576040517f08c379a0000000000000000000000000000000000000000000000000000000008152600401620000d79062000632565b60405180910390fd5b815f806101000a81548173ffffffffffffffffffffffffffffffffffffffff021916908373ffffffffffffffffffffffffffffffffffffffff1602179055505f73ffffffffffffffffffffffffffffffffffffffff168173ffffffffffffffffffffffffffffffffffffffff161462000165576200016481620001ff60201b60201c565b5b5050508473ffffffffffffffffffffffffffffffffffffffff1660c08173ffffffffffffffffffffffffffffffffffffffff16815250508273ffffffffffffffffffffffffffffffffffffffff1660a08173ffffffffffffffffffffffffffffffffffffffff16815250508160049081620001e1919062000889565b508060059081620001f3919062000889565b505050505050620009db565b3373ffffffffffffffffffffffffffffffffffffffff168173ffffffffffffffffffffffffffffffffffffffff160362000270576040517f08c379a00000000000000000000000000000000000000000000000000000000081526004016200026790620009bb565b60405180910390fd5b8060015f6101000a81548173ffffffffffffffffffffffffffffffffffffffff021916908373ffffffffffffffffffffffffffffffffffffffff1602179055508073ffffffffffffffffffffffffffffffffffffffff165f8054906101000a900473ffffffffffffffffffffffffffffffffffffffff1673ffffffffffffffffffffffffffffffffffffffff167fed8889f560326eb138920d842192f0eb3dd22b4f139c87a2c57538e05bae127860405160405180910390a350565b5f604051905090565b5f80fd5b5f80fd5b5f73ffffffffffffffffffffffffffffffffffffffff82169050919050565b5f62000368826200033d565b9050919050565b6200037a816200035c565b811462000385575f80fd5b50565b5f8151905062000398816200036f565b92915050565b5f80fd5b5f80fd5b5f601f19601f8301169050919050565b7f4e487b71000000000000000000000000000000000000000000000000000000005f52604160045260245ffd5b620003ee82620003a6565b810181811067ffffffffffffffff8211171562000410576200040f620003b6565b5b80604052505050565b5f620004246200032c565b9050620004328282620003e3565b919050565b5f67ffffffffffffffff821115620004545762000453620003b6565b5b6200045f82620003a6565b9050602081019050919050565b5f5b838110156200048b5780820151818401526020810190506200046e565b5f8484015250505050565b5f620004ac620004a68462000437565b62000419565b905082815260208101848484011115620004cb57620004ca620003a2565b5b620004d88482856200046c565b509392505050565b5f82601f830112620004f757620004f66200039e565b5b81516200050984826020860162000496565b91505092915050565b5f805f805f60a086880312156200052e576200052d62000335565b5b5f6200053d8882890162000388565b9550506020620005508882890162000388565b9450506040620005638882890162000388565b935050606086015167ffffffffffffffff81111562000587576200058662000339565b5b6200059588828901620004e0565b925050608086015167ffffffffffffffff811115620005b957620005b862000339565b5b620005c788828901620004e0565b9150509295509295909350565b5f82825260208201905092915050565b7f43616e6e6f7420736574206f776e657220746f207a65726f00000000000000005f82015250565b5f6200061a601883620005d4565b91506200062782620005e4565b602082019050919050565b5f6020820190508181035f8301526200064b816200060c565b9050919050565b5f81519050919050565b7f4e487b71000000000000000000000000000000000000000000000000000000005f52602260045260245ffd5b5f6002820490506001821680620006a157607f821691505b602082108103620006b757620006b66200065c565b5b50919050565b5f819050815f5260205f209050919050565b5f6020601f8301049050919050565b5f82821b905092915050565b5f600883026200071b7fffffffffffffffffffffffffffffffffffffffffffffffffffffffffffffffff82620006de565b620007278683620006de565b95508019841693508086168417925050509392505050565b5f819050919050565b5f819050919050565b5f620007716200076b62000765846200073f565b62000748565b6200073f565b9050919050565b5f819050919050565b6200078c8362000751565b620007a46200079b8262000778565b848454620006ea565b825550505050565b5f90565b620007ba620007ac565b620007c781848462000781565b505050565b5b81811015620007ee57620007e25f82620007b0565b600181019050620007cd565b5050565b601f8211156200083d576200080781620006bd565b6200081284620006cf565b8101602085101562000822578190505b6200083a6200083185620006cf565b830182620007cc565b50505b505050565b5f82821c905092915050565b5f6200085f5f198460080262000842565b1980831691505092915050565b5f6200087983836200084e565b9150826002028217905092915050565b620008948262000652565b67ffffffffffffffff811115620008b057620008af620003b6565b5b620008bc825462000689565b620008c9828285620007f2565b5f60209050601f831160018114620008ff575f8415620008ea578287015190505b620008f685826200086c565b86555062000965565b601f1984166200090f86620006bd565b5f5b82811015620009385784890151825560018201915060208501945060208101905062000911565b8683101562000958578489015162000954601f8916826200084e565b8355505b6001600288020188555050505b505050505050565b7f43616e6e6f74207472616e7366657220746f2073656c660000000000000000005f82015250565b5f620009a3601783620005d4565b9150620009b0826200096d565b602082019050919050565b5f6020820190508181035f830152620009d48162000995565b9050919050565b60805160a05160c051612ce962000a0d5f395f6109b601525f6103dd01525f818161014901526113300152612ce95ff3fe608060405234801561000f575f80fd5b506004361061007b575f3560e01c80638da5cb5b116100595780638da5cb5b146100c1578063c033639f146100df578063ee55c0251461010f578063f2fde38b1461012b5761007b565b80630ca761751461007f5780636e3dceba1461009b57806379ba5097146100b7575b5f80fd5b61009960048036038101906100949190611d5c565b610147565b005b6100b560048036038101906100b09190611e82565b610209565b005b6100bf610224565b005b6100c96103b3565b6040516100d69190611f08565b60405180910390f35b6100f960048036038101906100f49190611fca565b6103da565b604051610106919061203d565b60405180910390f35b61012960048036038101906101249190612056565b61085b565b005b610145600480360381019061014091906120be565b610b15565b005b7f000000000000000000000000000000000000000000000000000000000000000073ffffffffffffffffffffffffffffffffffffffff163373ffffffffffffffffffffffffffffffffffffffff16146101cc576040517fc6829f8300000000000000000000000000000000000000000000000000000000815260040160405180910390fd5b6101d7838383610b29565b827f85e1543bf2f84fe80c6badbce3648c8539ad1df4d2b3d822938ca0538be727e660405160405180910390a2505050565b610211610e41565b806004908161022091906122ed565b5050565b60015f9054906101000a900473ffffffffffffffffffffffffffffffffffffffff1673ffffffffffffffffffffffffffffffffffffffff163373ffffffffffffffffffffffffffffffffffffffff16146102b3576040517f08c379a00000000000000000000000000000000000000000000000000000000081526004016102aa90612416565b60405180910390fd5b5f805f9054906101000a900473ffffffffffffffffffffffffffffffffffffffff169050335f806101000a81548173ffffffffffffffffffffffffffffffffffffffff021916908373ffffffffffffffffffffffffffffffffffffffff1602179055505f60015f6101000a81548173ffffffffffffffffffffffffffffffffffffffff021916908373ffffffffffffffffffffffffffffffffffffffff1602179055503373ffffffffffffffffffffffffffffffffffffffff168173ffffffffffffffffffffffffffffffffffffffff167f8be0079c531659141344cd1fd0a4f28419497f9722a3daafe3b4186f6b6457e060405160405180910390a350565b5f805f9054906101000a900473ffffffffffffffffffffffffffffffffffffffff16905090565b5f7f000000000000000000000000000000000000000000000000000000000000000073ffffffffffffffffffffffffffffffffffffffff1663ace417e0336040518263ffffffff1660e01b81526004016104349190611f08565b602060405180830381865afa15801561044f573d5f803e3d5ffd5b505050506040513d601f19601f820116820180604052508101906104739190612469565b6104b2576040517f08c379a00000000000000000000000000000000000000000000000000000000081526004016104a9906124de565b60405180910390fd5b5f60028111156104c5576104c46124fc565b5b60065f8381526020019081526020015f206002015f9054906101000a900460ff1660028111156104f8576104f76124fc565b5b0361052f576040517f2db8f2c700000000000000000000000000000000000000000000000000000000815260040160405180910390fd5b610537611b35565b6105d26004805461054790612120565b80601f016020809104026020016040519081016040528092919081815260200182805461057390612120565b80156105be5780601f10610595576101008083540402835291602001916105be565b820191905f5260205f20905b8154815290600101906020018083116105a157829003601f168201915b505050505082610ed090919063ffffffff16565b5f600167ffffffffffffffff8111156105ee576105ed611c38565b5b60405190808252806020026020018201604052801561062157816020015b606081526020019060019003908161060c5790505b5090506005805461063190612120565b80601f016020809104026020016040519081016040528092919081815260200182805461065d90612120565b80156106a85780601f1061067f576101008083540402835291602001916106a8565b820191905f5260205f20905b81548152906001019060200180831161068b57829003601f168201915b5050505050815f815181106106c0576106bf612529565b5b60200260200101819052506106de8183610ee090919063ffffffff16565b6106f26106ea83610f27565b87878761132c565b92506040518060a001604052803373ffffffffffffffffffffffffffffffffffffffff1681526020018881526020015f6002811115610734576107336124fc565b5b81526020015f815260200160405180602001604052805f81525081525060065f8581526020019081526020015f205f820151815f015f6101000a81548173ffffffffffffffffffffffffffffffffffffffff021916908373ffffffffffffffffffffffffffffffffffffffff160217905550602082015181600101556040820151816002015f6101000a81548160ff021916908360028111156107da576107d96124fc565b5b02179055506060820151816003015560808201518160040190816107fe91906122ed565b509050503373ffffffffffffffffffffffffffffffffffffffff16837f04ce5008d1f8d980dcae5211a1955f56db471e86c1453c5b2bf42727d6540709896040516108499190612565565b60405180910390a35050949350505050565b610863610e41565b60016002811115610877576108766124fc565b5b8114806108955750600280811115610892576108916124fc565b5b81145b6108d4576040517f08c379a00000000000000000000000000000000000000000000000000000000081526004016108cb906125c8565b60405180910390fd5b5f60028111156108e7576108e66124fc565b5b60065f8481526020019081526020015f206002015f9054906101000a900460ff16600281111561091a576109196124fc565b5b1461095a576040517f08c379a000000000000000000000000000000000000000000000000000000000815260040161095190612630565b60405180910390fd5b5f60065f8481526020019081526020015f20905060016002811115610982576109816124fc565b5b8203610a72576001816002015f6101000a81548160ff021916908360028111156109af576109ae6124fc565b5b02179055507f000000000000000000000000000000000000000000000000000000000000000073ffffffffffffffffffffffffffffffffffffffff1663c1341c4f825f015f9054906101000a900473ffffffffffffffffffffffffffffffffffffffff1683600301548460010154856004016040518563ffffffff1660e01b8152600401610a409493929190612702565b5f604051808303815f87803b158015610a57575f80fd5b505af1158015610a69573d5f803e3d5ffd5b50505050610a9f565b6002816002015f6101000a81548160ff02191690836002811115610a9957610a986124fc565b5b02179055505b805f015f9054906101000a900473ffffffffffffffffffffffffffffffffffffffff1673ffffffffffffffffffffffffffffffffffffffff16837fd0691c36a13d506bc4bd958df76b26223921e22263ae451309ac21af80127e3284604051610b089190612565565b60405180910390a3505050565b610b1d610e41565b610b268161140b565b50565b5f815114610b6e57806040517f08c379a0000000000000000000000000000000000000000000000000000000008152600401610b6591906127bf565b60405180910390fd5b8260025403610e3c575f8290505f60035f815480929190610b8e9061280c565b9190505590505f60065f8781526020019081526020015f206040518060a00160405290815f82015f9054906101000a900473ffffffffffffffffffffffffffffffffffffffff1673ffffffffffffffffffffffffffffffffffffffff1673ffffffffffffffffffffffffffffffffffffffff16815260200160018201548152602001600282015f9054906101000a900460ff166002811115610c3357610c326124fc565b5b6002811115610c4557610c446124fc565b5b815260200160038201548152602001600482018054610c6390612120565b80601f0160208091040260200160405190810160405280929190818152602001828054610c8f90612120565b8015610cda5780601f10610cb157610100808354040283529160200191610cda565b820191905f5260205f20905b815481529060010190602001808311610cbd57829003601f168201915b50505050508152505090505f6002811115610cf857610cf76124fc565b5b60065f8881526020019081526020015f206002015f9054906101000a900460ff166002811115610d2b57610d2a6124fc565b5b03610e38576040518060a00160405280825f015173ffffffffffffffffffffffffffffffffffffffff168152602001826020015181526020015f6002811115610d7757610d766124fc565b5b81526020018381526020018481525060065f8881526020019081526020015f205f820151815f015f6101000a81548173ffffffffffffffffffffffffffffffffffffffff021916908373ffffffffffffffffffffffffffffffffffffffff160217905550602082015181600101556040820151816002015f6101000a81548160ff02191690836002811115610e0f57610e0e6124fc565b5b0217905550606082015181600301556080820151816004019081610e3391906122ed565b509050505b5050505b505050565b5f8054906101000a900473ffffffffffffffffffffffffffffffffffffffff1673ffffffffffffffffffffffffffffffffffffffff163373ffffffffffffffffffffffffffffffffffffffff1614610ece576040517f08c379a0000000000000000000000000000000000000000000000000000000008152600401610ec59061289d565b60405180910390fd5b565b610edc825f8084611535565b5050565b5f815103610f1a576040517ffe936cb700000000000000000000000000000000000000000000000000000000815260040160405180910390fd5b808260a001819052505050565b60605f610f356101006115db565b9050610f7f6040518060400160405280600c81526020017f636f64654c6f636174696f6e00000000000000000000000000000000000000008152508261160090919063ffffffff16565b610fa7835f01516002811115610f9857610f976124fc565b5b8261162890919063ffffffff16565b610fef6040518060400160405280600881526020017f6c616e67756167650000000000000000000000000000000000000000000000008152508261160090919063ffffffff16565b61101783604001515f811115611008576110076124fc565b5b8261162890919063ffffffff16565b61105f6040518060400160405280600681526020017f736f7572636500000000000000000000000000000000000000000000000000008152508261160090919063ffffffff16565b61107683606001518261160090919063ffffffff16565b5f8360a0015151111561112a576110cb6040518060400160405280600481526020017f61726773000000000000000000000000000000000000000000000000000000008152508261160090919063ffffffff16565b6110d481611677565b5f5b8360a001515181101561111f576111148460a0015182815181106110fd576110fc612529565b5b60200260200101518361160090919063ffffffff16565b8060010190506110d6565b506111298161169f565b5b5f8360800151511115611269575f600281111561114a576111496124fc565b5b83602001516002811115611161576111606124fc565b5b03611198576040517fa80d31f700000000000000000000000000000000000000000000000000000000815260040160405180910390fd5b6111e06040518060400160405280600f81526020017f736563726574734c6f636174696f6e00000000000000000000000000000000008152508261160090919063ffffffff16565b611209836020015160028111156111fa576111f96124fc565b5b8261162890919063ffffffff16565b6112516040518060400160405280600781526020017f73656372657473000000000000000000000000000000000000000000000000008152508261160090919063ffffffff16565b6112688360800151826116c790919063ffffffff16565b5b5f8360c0015151111561131d576112be6040518060400160405280600981526020017f62797465734172677300000000000000000000000000000000000000000000008152508261160090919063ffffffff16565b6112c781611677565b5f5b8360c0015151811015611312576113078460c0015182815181106112f0576112ef612529565b5b6020026020010151836116c790919063ffffffff16565b8060010190506112c9565b5061131c8161169f565b5b805f01515f0151915050919050565b5f807f000000000000000000000000000000000000000000000000000000000000000073ffffffffffffffffffffffffffffffffffffffff1663461d27628688600188886040518663ffffffff1660e01b8152600401611390959493929190612937565b6020604051808303815f875af11580156113ac573d5f803e3d5ffd5b505050506040513d601f19601f820116820180604052508101906113d091906129a3565b9050807f1131472297a800fee664d1d89cfa8f7676ff07189ecc53f80bbb5f4969099db860405160405180910390a280915050949350505050565b3373ffffffffffffffffffffffffffffffffffffffff168173ffffffffffffffffffffffffffffffffffffffff1603611479576040517f08c379a000000000000000000000000000000000000000000000000000000000815260040161147090612a18565b60405180910390fd5b8060015f6101000a81548173ffffffffffffffffffffffffffffffffffffffff021916908373ffffffffffffffffffffffffffffffffffffffff1602179055508073ffffffffffffffffffffffffffffffffffffffff165f8054906101000a900473ffffffffffffffffffffffffffffffffffffffff1673ffffffffffffffffffffffffffffffffffffffff167fed8889f560326eb138920d842192f0eb3dd22b4f139c87a2c57538e05bae127860405160405180910390a350565b5f81510361156f576040517f22ce3edd00000000000000000000000000000000000000000000000000000000815260040160405180910390fd5b82845f01906002811115611586576115856124fc565b5b9081600281111561159a576115996124fc565b5b815250508184604001905f8111156115b5576115b46124fc565b5b90815f8111156115c8576115c76124fc565b5b8152505080846060018190525050505050565b6115e3611ba4565b6115f0815f0151836116ef565b505f816020018181525050919050565b61160d8260038351611765565b61162381835f015161190590919063ffffffff16565b505050565b61164960026005600660ff16901b17835f015161192190919063ffffffff16565b50611673828260405160200161165f9190612565565b6040516020818303038152906040526116c7565b5050565b611682816004611988565b6001816020018181516116959190612a36565b9150818152505050565b6116aa816007611988565b6001816020018181516116bd9190612a69565b9150818152505050565b6116d48260028351611765565b6116ea81835f015161190590919063ffffffff16565b505050565b6116f7611bc3565b5f6020836117059190612ac9565b14611731576020826117179190612ac9565b60206117239190612a69565b8261172e9190612a36565b91505b818360200181815250506040518084525f815282810160200181811015611756575f80fd5b80604052505082905092915050565b60178167ffffffffffffffff161161179f576117998160058460ff16901b60ff1617845f015161192190919063ffffffff16565b50611900565b60ff8167ffffffffffffffff16116117fb576117d1601860058460ff16901b17845f015161192190919063ffffffff16565b506117f58167ffffffffffffffff166001855f01516119ad9092919063ffffffff16565b506118ff565b61ffff8167ffffffffffffffff16116118585761182e601960058460ff16901b17845f015161192190919063ffffffff16565b506118528167ffffffffffffffff166002855f01516119ad9092919063ffffffff16565b506118fe565b63ffffffff8167ffffffffffffffff16116118b75761188d601a60058460ff16901b17845f015161192190919063ffffffff16565b506118b18167ffffffffffffffff166004855f01516119ad9092919063ffffffff16565b506118fd565b6118d7601b60058460ff16901b17845f015161192190919063ffffffff16565b506118fb8167ffffffffffffffff166008855f01516119ad9092919063ffffffff16565b505b5b5b5b505050565b61190d611bc3565b61191983838451611a36565b905092915050565b611929611bc3565b5f835f01515190505f60018261193f9190612a36565b905084602001518210611963576119628560028361195d9190612af9565b611b13565b5b8451602083820101858153815183111561197b578282525b5050849250505092915050565b6119a8601f60058360ff16901b17835f015161192190919063ffffffff16565b505050565b6119b5611bc3565b5f845f01515190505f81846119ca9190612a36565b905085602001518111156119ef576119ee866002836119e99190612af9565b611b13565b5b5f600185610100611a009190612c69565b611a0a9190612a69565b905086518281018783198251161781528151841115611a27578382525b50508693505050509392505050565b611a3e611bc3565b8251821115611a4b575f80fd5b5f845f01515190505f8382611a609190612a36565b90508560200151811115611a8557611a8486600283611a7f9190612af9565b611b13565b5b5f8087518051856020830101935080851115611a9f578482525b60208901925050505b60208610611ae65780518252602082611ac19190612a36565b9150602081611ad09190612a36565b9050602086611adf9190612a69565b9550611aa8565b5f6001876020036101000a0390508019825116818451168181178552505050879450505050509392505050565b5f825f01519050611b2483836116ef565b50611b2f8382611905565b50505050565b6040518060e001604052805f6002811115611b5357611b526124fc565b5b81526020015f6002811115611b6b57611b6a6124fc565b5b81526020015f80811115611b8257611b816124fc565b5b8152602001606081526020016060815260200160608152602001606081525090565b6040518060400160405280611bb7611bc3565b81526020015f81525090565b6040518060400160405280606081526020015f81525090565b5f604051905090565b5f80fd5b5f80fd5b5f819050919050565b611bff81611bed565b8114611c09575f80fd5b50565b5f81359050611c1a81611bf6565b92915050565b5f80fd5b5f80fd5b5f601f19601f8301169050919050565b7f4e487b71000000000000000000000000000000000000000000000000000000005f52604160045260245ffd5b611c6e82611c28565b810181811067ffffffffffffffff82111715611c8d57611c8c611c38565b5b80604052505050565b5f611c9f611bdc565b9050611cab8282611c65565b919050565b5f67ffffffffffffffff821115611cca57611cc9611c38565b5b611cd382611c28565b9050602081019050919050565b828183375f83830152505050565b5f611d00611cfb84611cb0565b611c96565b905082815260208101848484011115611d1c57611d1b611c24565b5b611d27848285611ce0565b509392505050565b5f82601f830112611d4357611d42611c20565b5b8135611d53848260208601611cee565b91505092915050565b5f805f60608486031215611d7357611d72611be5565b5b5f611d8086828701611c0c565b935050602084013567ffffffffffffffff811115611da157611da0611be9565b5b611dad86828701611d2f565b925050604084013567ffffffffffffffff811115611dce57611dcd611be9565b5b611dda86828701611d2f565b9150509250925092565b5f67ffffffffffffffff821115611dfe57611dfd611c38565b5b611e0782611c28565b9050602081019050919050565b5f611e26611e2184611de4565b611c96565b905082815260208101848484011115611e4257611e41611c24565b5b611e4d848285611ce0565b509392505050565b5f82601f830112611e6957611e68611c20565b5b8135611e79848260208601611e14565b91505092915050565b5f60208284031215611e9757611e96611be5565b5b5f82013567ffffffffffffffff811115611eb457611eb3611be9565b5b611ec084828501611e55565b91505092915050565b5f73ffffffffffffffffffffffffffffffffffffffff82169050919050565b5f611ef282611ec9565b9050919050565b611f0281611ee8565b82525050565b5f602082019050611f1b5f830184611ef9565b92915050565b5f819050919050565b611f3381611f21565b8114611f3d575f80fd5b50565b5f81359050611f4e81611f2a565b92915050565b5f67ffffffffffffffff82169050919050565b611f7081611f54565b8114611f7a575f80fd5b50565b5f81359050611f8b81611f67565b92915050565b5f63ffffffff82169050919050565b611fa981611f91565b8114611fb3575f80fd5b50565b5f81359050611fc481611fa0565b92915050565b5f805f8060808587031215611fe257611fe1611be5565b5b5f611fef87828801611f40565b945050602061200087828801611f7d565b935050604061201187828801611fb6565b925050606061202287828801611c0c565b91505092959194509250565b61203781611bed565b82525050565b5f6020820190506120505f83018461202e565b92915050565b5f806040838503121561206c5761206b611be5565b5b5f61207985828601611c0c565b925050602061208a85828601611f40565b9150509250929050565b61209d81611ee8565b81146120a7575f80fd5b50565b5f813590506120b881612094565b92915050565b5f602082840312156120d3576120d2611be5565b5b5f6120e0848285016120aa565b91505092915050565b5f81519050919050565b7f4e487b71000000000000000000000000000000000000000000000000000000005f52602260045260245ffd5b5f600282049050600182168061213757607f821691505b60208210810361214a576121496120f3565b5b50919050565b5f819050815f5260205f209050919050565b5f6020601f8301049050919050565b5f82821b905092915050565b5f600883026121ac7fffffffffffffffffffffffffffffffffffffffffffffffffffffffffffffffff82612171565b6121b68683612171565b95508019841693508086168417925050509392505050565b5f819050919050565b5f6121f16121ec6121e784611f21565b6121ce565b611f21565b9050919050565b5f819050919050565b61220a836121d7565b61221e612216826121f8565b84845461217d565b825550505050565b5f90565b612232612226565b61223d818484612201565b505050565b5b81811015612260576122555f8261222a565b600181019050612243565b5050565b601f8211156122a55761227681612150565b61227f84612162565b8101602085101561228e578190505b6122a261229a85612162565b830182612242565b50505b505050565b5f82821c905092915050565b5f6122c55f19846008026122aa565b1980831691505092915050565b5f6122dd83836122b6565b9150826002028217905092915050565b6122f6826120e9565b67ffffffffffffffff81111561230f5761230e611c38565b5b6123198254612120565b612324828285612264565b5f60209050601f831160018114612355575f8415612343578287015190505b61234d85826122d2565b8655506123b4565b601f19841661236386612150565b5f5b8281101561238a57848901518255600182019150602085019450602081019050612365565b868310156123a757848901516123a3601f8916826122b6565b8355505b6001600288020188555050505b505050505050565b5f82825260208201905092915050565b7f4d7573742062652070726f706f736564206f776e6572000000000000000000005f82015250565b5f6124006016836123bc565b915061240b826123cc565b602082019050919050565b5f6020820190508181035f83015261242d816123f4565b9050919050565b5f8115159050919050565b61244881612434565b8114612452575f80fd5b50565b5f815190506124638161243f565b92915050565b5f6020828403121561247e5761247d611be5565b5b5f61248b84828501612455565b91505092915050565b7f4e6f74204b5943207665726966696564000000000000000000000000000000005f82015250565b5f6124c86010836123bc565b91506124d382612494565b602082019050919050565b5f6020820190508181035f8301526124f5816124bc565b9050919050565b7f4e487b71000000000000000000000000000000000000000000000000000000005f52602160045260245ffd5b7f4e487b71000000000000000000000000000000000000000000000000000000005f52603260045260245ffd5b61255f81611f21565b82525050565b5f6020820190506125785f830184612556565b92915050565b7f496e76616c6964207374617475730000000000000000000000000000000000005f82015250565b5f6125b2600e836123bc565b91506125bd8261257e565b602082019050919050565b5f6020820190508181035f8301526125df816125a6565b9050919050565b7f52657175657374206e6f742070656e64696e67000000000000000000000000005f82015250565b5f61261a6013836123bc565b9150612625826125e6565b602082019050919050565b5f6020820190508181035f8301526126478161260e565b9050919050565b5f82825260208201905092915050565b50565b5f61266c5f8361264e565b91506126778261265e565b5f82019050919050565b5f815461268d81612120565b61269781866123bc565b9450600182165f81146126b157600181146126c7576126f9565b60ff1983168652811515602002860193506126f9565b6126d085612150565b5f5b838110156126f1578154818901526001820191506020810190506126d2565b808801955050505b50505092915050565b5f60a0820190506127155f830187611ef9565b6127226020830186612556565b61272f6040830185612556565b818103606083015261274081612661565b905081810360808301526127548184612681565b905095945050505050565b5f5b8381101561277c578082015181840152602081019050612761565b5f8484015250505050565b5f612791826120e9565b61279b81856123bc565b93506127ab81856020860161275f565b6127b481611c28565b840191505092915050565b5f6020820190508181035f8301526127d78184612787565b905092915050565b7f4e487b71000000000000000000000000000000000000000000000000000000005f52601160045260245ffd5b5f61281682611f21565b91507fffffffffffffffffffffffffffffffffffffffffffffffffffffffffffffffff8203612848576128476127df565b5b600182019050919050565b7f4f6e6c792063616c6c61626c65206279206f776e6572000000000000000000005f82015250565b5f6128876016836123bc565b915061289282612853565b602082019050919050565b5f6020820190508181035f8301526128b48161287b565b9050919050565b6128c481611f54565b82525050565b5f81519050919050565b5f6128de826128ca565b6128e8818561264e565b93506128f881856020860161275f565b61290181611c28565b840191505092915050565b5f61ffff82169050919050565b6129228161290c565b82525050565b61293181611f91565b82525050565b5f60a08201905061294a5f8301886128bb565b818103602083015261295c81876128d4565b905061296b6040830186612919565b6129786060830185612928565b612985608083018461202e565b9695505050505050565b5f8151905061299d81611bf6565b92915050565b5f602082840312156129b8576129b7611be5565b5b5f6129c58482850161298f565b91505092915050565b7f43616e6e6f74207472616e7366657220746f2073656c660000000000000000005f82015250565b5f612a026017836123bc565b9150612a0d826129ce565b602082019050919050565b5f6020820190508181035f830152612a2f816129f6565b9050919050565b5f612a4082611f21565b9150612a4b83611f21565b9250828201905080821115612a6357612a626127df565b5b92915050565b5f612a7382611f21565b9150612a7e83611f21565b9250828203905081811115612a9657612a956127df565b5b92915050565b7f4e487b71000000000000000000000000000000000000000000000000000000005f52601260045260245ffd5b5f612ad382611f21565b9150612ade83611f21565b925082612aee57612aed612a9c565b5b828206905092915050565b5f612b0382611f21565b9150612b0e83611f21565b9250828202612b1c81611f21565b91508282048414831517612b3357612b326127df565b5b5092915050565b5f8160011c9050919050565b5f808291508390505b6001851115612b8f57808604811115612b6b57612b6a6127df565b5b6001851615612b7a5780820291505b8081029050612b8885612b3a565b9450612b4f565b94509492505050565b5f82612ba75760019050612c62565b81612bb4575f9050612c62565b8160018114612bca5760028114612bd457612c03565b6001915050612c62565b60ff841115612be657612be56127df565b5b8360020a915084821115612bfd57612bfc6127df565b5b50612c62565b5060208310610133831016604e8410600b8410161715612c385782820a905083811115612c3357612c326127df565b5b612c62565b612c458484846001612b46565b92509050818404811115612c5c57612c5b6127df565b5b81810290505b9392505050565b5f612c7382611f21565b9150612c7e83611f21565b9250612cab7fffffffffffffffffffffffffffffffffffffffffffffffffffffffffffffffff8484612b98565b90509291505056fea264697066735822122032a75261f5c6d8a965e567fb372807bb47334091bfa6bcbf497ae1fb1cabc00964736f6c63430008180033","linkReferences":{}},"methodIdentifiers":{"acceptOwnership()":"79ba5097","approveIssue(bytes32,uint256)":"ee55c025","handleOracleFulfillment(bytes32,bytes,bytes)":"0ca76175","owner()":"8da5cb5b","requestIssue(uint256,uint64,uint32,bytes32)":"c033639f","setNftMetadataScript(string)":"6e3dceba","transferOwnership(address)":"f2fde38b"},"id":76}