{"abi":[{"type":"constructor","inputs":[{"name":"functionsRouterAddress","type":"address","internalType":"address"},{"name":"priceScript","type":"string","internalType":"string"},{"name":"requestUrl","type":"string","internalType":"string"}],"stateMutability":"nonpayable"},{"type":"function","name":"acceptOwnership","inputs":[],"outputs":[],"stateMutability":"nonpayable"},{"type":"function","name":"getValuationInUsdc","inputs":[{"name":"tokenId","type":"uint256","internalType":"uint256"}],"outputs":[{"name":"","type":"uint256","internalType":"uint256"}],"stateMutability":"view"},{"type":"function","name":"handleOracleFulfillment","inputs":[{"name":"requestId","type":"bytes32","internalType":"bytes32"},{"name":"response","type":"bytes","internalType":"bytes"},{"name":"err","type":"bytes","internalType":"bytes"}],"outputs":[],"stateMutability":"nonpayable"},{"type":"function","name":"owner","inputs":[],"outputs":[{"name":"","type":"address","internalType":"address"}],"stateMutability":"view"},{"type":"function","name":"setAutomationForwarder","inputs":[{"name":"automationForwarderAddress","type":"address","internalType":"address"}],"outputs":[],"stateMutability":"nonpayable"},{"type":"function","name":"setPriceScript","inputs":[{"name":"priceScript","type":"string","internalType":"string"}],"outputs":[],"stateMutability":"nonpayable"},{"type":"function","name":"setRequestUrl","inputs":[{"name":"requestUrl","type":"string","internalType":"string"}],"outputs":[],"stateMutability":"nonpayable"},{"type":"function","name":"transferOwnership","inputs":[{"name":"to","type":"address","internalType":"address"}],"outputs":[],"stateMutability":"nonpayable"},{"type":"function","name":"updatePriceDetails","inputs":[{"name":"tokenId","type":"string","internalType":"string"},{"name":"subscriptionId","type":"uint64","internalType":"uint64"},{"name":"gasLimit","type":"uint32","internalType":"uint32"},{"name":"donID","type":"bytes32","internalType":"bytes32"}],"outputs":[{"name":"requestId","type":"bytes32","internalType":"bytes32"}],"stateMutability":"nonpayable"},{"type":"event","name":"OwnershipTransferRequested","inputs":[{"name":"from","type":"address","indexed":true,"internalType":"address"},{"name":"to","type":"address","indexed":true,"internalType":"address"}],"anonymous":false},{"type":"event","name":"OwnershipTransferred","inputs":[{"name":"from","type":"address","indexed":true,"internalType":"address"},{"name":"to","type":"address","indexed":true,"internalType":"address"}],"anonymous":false},{"type":"event","name":"RequestFulfilled","inputs":[{"name":"id","type":"bytes32","indexed":true,"internalType":"bytes32"}],"anonymous":false},{"type":"event","name":"RequestSent","inputs":[{"name":"id","type":"bytes32","indexed":true,"internalType":"bytes32"}],"anonymous":false},{"type":"error","name":"EmptyArgs","inputs":[]},{"type":"error","name":"EmptySource","inputs":[]},{"type":"error","name":"NoInlineSecrets","inputs":[]},{"type":"error","name":"OnlyAutomationForwarderOrOwnerCanCall","inputs":[]},{"type":"error","name":"OnlyRouterCanFulfill","inputs":[]}],"bytecode":{"object":"0x60a060405234801562000010575f80fd5b5060405162002ce438038062002ce48339818101604052810190620000369190620004a8565b33805f858073ffffffffffffffffffffffffffffffffffffffff1660808173ffffffffffffffffffffffffffffffffffffffff1681525050505f73ffffffffffffffffffffffffffffffffffffffff168273ffffffffffffffffffffffffffffffffffffffff1603620000e0576040517f08c379a0000000000000000000000000000000000000000000000000000000008152600401620000d7906200059d565b60405180910390fd5b815f806101000a81548173ffffffffffffffffffffffffffffffffffffffff021916908373ffffffffffffffffffffffffffffffffffffffff1602179055505f73ffffffffffffffffffffffffffffffffffffffff168173ffffffffffffffffffffffffffffffffffffffff1614620001655762000164816200019560201b60201c565b5b5050508160049081620001799190620007f4565b5080600590816200018b9190620007f4565b5050505062000946565b3373ffffffffffffffffffffffffffffffffffffffff168173ffffffffffffffffffffffffffffffffffffffff160362000206576040517f08c379a0000000000000000000000000000000000000000000000000000000008152600401620001fd9062000926565b60405180910390fd5b8060015f6101000a81548173ffffffffffffffffffffffffffffffffffffffff021916908373ffffffffffffffffffffffffffffffffffffffff1602179055508073ffffffffffffffffffffffffffffffffffffffff165f8054906101000a900473ffffffffffffffffffffffffffffffffffffffff1673ffffffffffffffffffffffffffffffffffffffff167fed8889f560326eb138920d842192f0eb3dd22b4f139c87a2c57538e05bae127860405160405180910390a350565b5f604051905090565b5f80fd5b5f80fd5b5f73ffffffffffffffffffffffffffffffffffffffff82169050919050565b5f620002fe82620002d3565b9050919050565b6200031081620002f2565b81146200031b575f80fd5b50565b5f815190506200032e8162000305565b92915050565b5f80fd5b5f80fd5b5f601f19601f8301169050919050565b7f4e487b71000000000000000000000000000000000000000000000000000000005f52604160045260245ffd5b62000384826200033c565b810181811067ffffffffffffffff82111715620003a657620003a56200034c565b5b80604052505050565b5f620003ba620002c2565b9050620003c8828262000379565b919050565b5f67ffffffffffffffff821115620003ea57620003e96200034c565b5b620003f5826200033c565b9050602081019050919050565b5f5b838110156200042157808201518184015260208101905062000404565b5f8484015250505050565b5f620004426200043c84620003cd565b620003af565b90508281526020810184848401111562000461576200046062000338565b5b6200046e84828562000402565b509392505050565b5f82601f8301126200048d576200048c62000334565b5b81516200049f8482602086016200042c565b91505092915050565b5f805f60608486031215620004c257620004c1620002cb565b5b5f620004d1868287016200031e565b935050602084015167ffffffffffffffff811115620004f557620004f4620002cf565b5b620005038682870162000476565b925050604084015167ffffffffffffffff811115620005275762000526620002cf565b5b620005358682870162000476565b9150509250925092565b5f82825260208201905092915050565b7f43616e6e6f7420736574206f776e657220746f207a65726f00000000000000005f82015250565b5f620005856018836200053f565b915062000592826200054f565b602082019050919050565b5f6020820190508181035f830152620005b68162000577565b9050919050565b5f81519050919050565b7f4e487b71000000000000000000000000000000000000000000000000000000005f52602260045260245ffd5b5f60028204905060018216806200060c57607f821691505b602082108103620006225762000621620005c7565b5b50919050565b5f819050815f5260205f209050919050565b5f6020601f8301049050919050565b5f82821b905092915050565b5f60088302620006867fffffffffffffffffffffffffffffffffffffffffffffffffffffffffffffffff8262000649565b62000692868362000649565b95508019841693508086168417925050509392505050565b5f819050919050565b5f819050919050565b5f620006dc620006d6620006d084620006aa565b620006b3565b620006aa565b9050919050565b5f819050919050565b620006f783620006bc565b6200070f6200070682620006e3565b84845462000655565b825550505050565b5f90565b6200072562000717565b62000732818484620006ec565b505050565b5b8181101562000759576200074d5f826200071b565b60018101905062000738565b5050565b601f821115620007a857620007728162000628565b6200077d846200063a565b810160208510156200078d578190505b620007a56200079c856200063a565b83018262000737565b50505b505050565b5f82821c905092915050565b5f620007ca5f1984600802620007ad565b1980831691505092915050565b5f620007e48383620007b9565b9150826002028217905092915050565b620007ff82620005bd565b67ffffffffffffffff8111156200081b576200081a6200034c565b5b620008278254620005f4565b620008348282856200075d565b5f60209050601f8311600181146200086a575f841562000855578287015190505b620008618582620007d7565b865550620008d0565b601f1984166200087a8662000628565b5f5b82811015620008a3578489015182556001820191506020850194506020810190506200087c565b86831015620008c35784890151620008bf601f891682620007b9565b8355505b6001600288020188555050505b505050505050565b7f43616e6e6f74207472616e7366657220746f2073656c660000000000000000005f82015250565b5f6200090e6017836200053f565b91506200091b82620008d8565b602082019050919050565b5f6020820190508181035f8301526200093f8162000900565b9050919050565b60805161237e620009665f395f81816101ab0152610c4a015261237e5ff3fe608060405234801561000f575f80fd5b5060043610610091575f3560e01c80638dd1ffa6116100645780638dd1ffa6146100f5578063a843a0ab14610125578063b880c88214610155578063d40d17bc14610171578063f2fde38b1461018d57610091565b80630ca761751461009557806324be11c6146100b157806379ba5097146100cd5780638da5cb5b146100d7575b5f80fd5b6100af60048036038101906100aa9190611676565b6101a9565b005b6100cb60048036038101906100c6919061179c565b61026b565b005b6100d5610286565b005b6100df610415565b6040516100ec9190611822565b60405180910390f35b61010f600480360381019061010a919061186e565b61043c565b60405161011c91906118a8565b60405180910390f35b61013f600480360381019061013a9190611937565b610456565b60405161014c91906119c6565b60405180910390f35b61016f600480360381019061016a919061179c565b610665565b005b61018b60048036038101906101869190611a09565b610680565b005b6101a760048036038101906101a29190611a09565b6106cb565b005b7f000000000000000000000000000000000000000000000000000000000000000073ffffffffffffffffffffffffffffffffffffffff163373ffffffffffffffffffffffffffffffffffffffff161461022e576040517fc6829f8300000000000000000000000000000000000000000000000000000000815260040160405180910390fd5b6102398383836106df565b827f85e1543bf2f84fe80c6badbce3648c8539ad1df4d2b3d822938ca0538be727e660405160405180910390a2505050565b61027361075b565b80600490816102829190611c38565b5050565b60015f9054906101000a900473ffffffffffffffffffffffffffffffffffffffff1673ffffffffffffffffffffffffffffffffffffffff163373ffffffffffffffffffffffffffffffffffffffff1614610315576040517f08c379a000000000000000000000000000000000000000000000000000000000815260040161030c90611d61565b60405180910390fd5b5f805f9054906101000a900473ffffffffffffffffffffffffffffffffffffffff169050335f806101000a81548173ffffffffffffffffffffffffffffffffffffffff021916908373ffffffffffffffffffffffffffffffffffffffff1602179055505f60015f6101000a81548173ffffffffffffffffffffffffffffffffffffffff021916908373ffffffffffffffffffffffffffffffffffffffff1602179055503373ffffffffffffffffffffffffffffffffffffffff168173ffffffffffffffffffffffffffffffffffffffff167f8be0079c531659141344cd1fd0a4f28419497f9722a3daafe3b4186f6b6457e060405160405180910390a350565b5f805f9054906101000a900473ffffffffffffffffffffffffffffffffffffffff16905090565b5f60035f8381526020019081526020015f20549050919050565b5f60025f9054906101000a900473ffffffffffffffffffffffffffffffffffffffff1673ffffffffffffffffffffffffffffffffffffffff163373ffffffffffffffffffffffffffffffffffffffff16141580156104e757506104b7610415565b73ffffffffffffffffffffffffffffffffffffffff163373ffffffffffffffffffffffffffffffffffffffff1614155b1561051e576040517f0b71f4bc00000000000000000000000000000000000000000000000000000000815260040160405180910390fd5b61052661144f565b6105c16004805461053690611a6b565b80601f016020809104026020016040519081016040528092919081815260200182805461056290611a6b565b80156105ad5780601f10610584576101008083540402835291602001916105ad565b820191905f5260205f20905b81548152906001019060200180831161059057829003601f168201915b5050505050826107ea90919063ffffffff16565b5f600167ffffffffffffffff8111156105dd576105dc611552565b5b60405190808252806020026020018201604052801561061057816020015b60608152602001906001900390816105fb5790505b50905086815f8151811061062757610626611d7f565b5b602002602001018190525061064581836107fa90919063ffffffff16565b61065961065183610841565b878787610c46565b92505050949350505050565b61066d61075b565b806005908161067c9190611c38565b5050565b61068861075b565b8060025f6101000a81548173ffffffffffffffffffffffffffffffffffffffff021916908373ffffffffffffffffffffffffffffffffffffffff16021790555050565b6106d361075b565b6106dc81610d25565b50565b5f81511461072457806040517f08c379a000000000000000000000000000000000000000000000000000000000815260040161071b9190611e0c565b60405180910390fd5b5f808380602001905181019061073a9190611e40565b915091508060035f8481526020019081526020015f20819055505050505050565b5f8054906101000a900473ffffffffffffffffffffffffffffffffffffffff1673ffffffffffffffffffffffffffffffffffffffff163373ffffffffffffffffffffffffffffffffffffffff16146107e8576040517f08c379a00000000000000000000000000000000000000000000000000000000081526004016107df90611ec8565b60405180910390fd5b565b6107f6825f8084610e4f565b5050565b5f815103610834576040517ffe936cb700000000000000000000000000000000000000000000000000000000815260040160405180910390fd5b808260a001819052505050565b60605f61084f610100610ef5565b90506108996040518060400160405280600c81526020017f636f64654c6f636174696f6e000000000000000000000000000000000000000081525082610f1a90919063ffffffff16565b6108c1835f015160028111156108b2576108b1611ee6565b5b82610f4290919063ffffffff16565b6109096040518060400160405280600881526020017f6c616e677561676500000000000000000000000000000000000000000000000081525082610f1a90919063ffffffff16565b61093183604001515f81111561092257610921611ee6565b5b82610f4290919063ffffffff16565b6109796040518060400160405280600681526020017f736f75726365000000000000000000000000000000000000000000000000000081525082610f1a90919063ffffffff16565b610990836060015182610f1a90919063ffffffff16565b5f8360a00151511115610a44576109e56040518060400160405280600481526020017f617267730000000000000000000000000000000000000000000000000000000081525082610f1a90919063ffffffff16565b6109ee81610f91565b5f5b8360a0015151811015610a3957610a2e8460a001518281518110610a1757610a16611d7f565b5b602002602001015183610f1a90919063ffffffff16565b8060010190506109f0565b50610a4381610fb9565b5b5f8360800151511115610b83575f6002811115610a6457610a63611ee6565b5b83602001516002811115610a7b57610a7a611ee6565b5b03610ab2576040517fa80d31f700000000000000000000000000000000000000000000000000000000815260040160405180910390fd5b610afa6040518060400160405280600f81526020017f736563726574734c6f636174696f6e000000000000000000000000000000000081525082610f1a90919063ffffffff16565b610b2383602001516002811115610b1457610b13611ee6565b5b82610f4290919063ffffffff16565b610b6b6040518060400160405280600781526020017f736563726574730000000000000000000000000000000000000000000000000081525082610f1a90919063ffffffff16565b610b82836080015182610fe190919063ffffffff16565b5b5f8360c00151511115610c3757610bd86040518060400160405280600981526020017f627974657341726773000000000000000000000000000000000000000000000081525082610f1a90919063ffffffff16565b610be181610f91565b5f5b8360c0015151811015610c2c57610c218460c001518281518110610c0a57610c09611d7f565b5b602002602001015183610fe190919063ffffffff16565b806001019050610be3565b50610c3681610fb9565b5b805f01515f0151915050919050565b5f807f000000000000000000000000000000000000000000000000000000000000000073ffffffffffffffffffffffffffffffffffffffff1663461d27628688600188886040518663ffffffff1660e01b8152600401610caa959493929190611f9f565b6020604051808303815f875af1158015610cc6573d5f803e3d5ffd5b505050506040513d601f19601f82011682018060405250810190610cea919061200b565b9050807f1131472297a800fee664d1d89cfa8f7676ff07189ecc53f80bbb5f4969099db860405160405180910390a280915050949350505050565b3373ffffffffffffffffffffffffffffffffffffffff168173ffffffffffffffffffffffffffffffffffffffff1603610d93576040517f08c379a0000000000000000000000000000000000000000000000000000000008152600401610d8a90612080565b60405180910390fd5b8060015f6101000a81548173ffffffffffffffffffffffffffffffffffffffff021916908373ffffffffffffffffffffffffffffffffffffffff1602179055508073ffffffffffffffffffffffffffffffffffffffff165f8054906101000a900473ffffffffffffffffffffffffffffffffffffffff1673ffffffffffffffffffffffffffffffffffffffff167fed8889f560326eb138920d842192f0eb3dd22b4f139c87a2c57538e05bae127860405160405180910390a350565b5f815103610e89576040517f22ce3edd00000000000000000000000000000000000000000000000000000000815260040160405180910390fd5b82845f01906002811115610ea057610e9f611ee6565b5b90816002811115610eb457610eb3611ee6565b5b815250508184604001905f811115610ecf57610ece611ee6565b5b90815f811115610ee257610ee1611ee6565b5b8152505080846060018190525050505050565b610efd6114be565b610f0a815f015183611009565b505f816020018181525050919050565b610f27826003835161107f565b610f3d81835f015161121f90919063ffffffff16565b505050565b610f6360026005600660ff16901b17835f015161123b90919063ffffffff16565b50610f8d8282604051602001610f7991906118a8565b604051602081830303815290604052610fe1565b5050565b610f9c8160046112a2565b600181602001818151610faf91906120cb565b9150818152505050565b610fc48160076112a2565b600181602001818151610fd791906120fe565b9150818152505050565b610fee826002835161107f565b61100481835f015161121f90919063ffffffff16565b505050565b6110116114dd565b5f60208361101f919061215e565b1461104b57602082611031919061215e565b602061103d91906120fe565b8261104891906120cb565b91505b818360200181815250506040518084525f815282810160200181811015611070575f80fd5b80604052505082905092915050565b60178167ffffffffffffffff16116110b9576110b38160058460ff16901b60ff1617845f015161123b90919063ffffffff16565b5061121a565b60ff8167ffffffffffffffff1611611115576110eb601860058460ff16901b17845f015161123b90919063ffffffff16565b5061110f8167ffffffffffffffff166001855f01516112c79092919063ffffffff16565b50611219565b61ffff8167ffffffffffffffff161161117257611148601960058460ff16901b17845f015161123b90919063ffffffff16565b5061116c8167ffffffffffffffff166002855f01516112c79092919063ffffffff16565b50611218565b63ffffffff8167ffffffffffffffff16116111d1576111a7601a60058460ff16901b17845f015161123b90919063ffffffff16565b506111cb8167ffffffffffffffff166004855f01516112c79092919063ffffffff16565b50611217565b6111f1601b60058460ff16901b17845f015161123b90919063ffffffff16565b506112158167ffffffffffffffff166008855f01516112c79092919063ffffffff16565b505b5b5b5b505050565b6112276114dd565b61123383838451611350565b905092915050565b6112436114dd565b5f835f01515190505f60018261125991906120cb565b90508460200151821061127d5761127c85600283611277919061218e565b61142d565b5b84516020838201018581538151831115611295578282525b5050849250505092915050565b6112c2601f60058360ff16901b17835f015161123b90919063ffffffff16565b505050565b6112cf6114dd565b5f845f01515190505f81846112e491906120cb565b905085602001518111156113095761130886600283611303919061218e565b61142d565b5b5f60018561010061131a91906122fe565b61132491906120fe565b905086518281018783198251161781528151841115611341578382525b50508693505050509392505050565b6113586114dd565b8251821115611365575f80fd5b5f845f01515190505f838261137a91906120cb565b9050856020015181111561139f5761139e86600283611399919061218e565b61142d565b5b5f80875180518560208301019350808511156113b9578482525b60208901925050505b6020861061140057805182526020826113db91906120cb565b91506020816113ea91906120cb565b90506020866113f991906120fe565b95506113c2565b5f6001876020036101000a0390508019825116818451168181178552505050879450505050509392505050565b5f825f0151905061143e8383611009565b50611449838261121f565b50505050565b6040518060e001604052805f600281111561146d5761146c611ee6565b5b81526020015f600281111561148557611484611ee6565b5b81526020015f8081111561149c5761149b611ee6565b5b8152602001606081526020016060815260200160608152602001606081525090565b60405180604001604052806114d16114dd565b81526020015f81525090565b6040518060400160405280606081526020015f81525090565b5f604051905090565b5f80fd5b5f80fd5b5f819050919050565b61151981611507565b8114611523575f80fd5b50565b5f8135905061153481611510565b92915050565b5f80fd5b5f80fd5b5f601f19601f8301169050919050565b7f4e487b71000000000000000000000000000000000000000000000000000000005f52604160045260245ffd5b61158882611542565b810181811067ffffffffffffffff821117156115a7576115a6611552565b5b80604052505050565b5f6115b96114f6565b90506115c5828261157f565b919050565b5f67ffffffffffffffff8211156115e4576115e3611552565b5b6115ed82611542565b9050602081019050919050565b828183375f83830152505050565b5f61161a611615846115ca565b6115b0565b9050828152602081018484840111156116365761163561153e565b5b6116418482856115fa565b509392505050565b5f82601f83011261165d5761165c61153a565b5b813561166d848260208601611608565b91505092915050565b5f805f6060848603121561168d5761168c6114ff565b5b5f61169a86828701611526565b935050602084013567ffffffffffffffff8111156116bb576116ba611503565b5b6116c786828701611649565b925050604084013567ffffffffffffffff8111156116e8576116e7611503565b5b6116f486828701611649565b9150509250925092565b5f67ffffffffffffffff82111561171857611717611552565b5b61172182611542565b9050602081019050919050565b5f61174061173b846116fe565b6115b0565b90508281526020810184848401111561175c5761175b61153e565b5b6117678482856115fa565b509392505050565b5f82601f8301126117835761178261153a565b5b813561179384826020860161172e565b91505092915050565b5f602082840312156117b1576117b06114ff565b5b5f82013567ffffffffffffffff8111156117ce576117cd611503565b5b6117da8482850161176f565b91505092915050565b5f73ffffffffffffffffffffffffffffffffffffffff82169050919050565b5f61180c826117e3565b9050919050565b61181c81611802565b82525050565b5f6020820190506118355f830184611813565b92915050565b5f819050919050565b61184d8161183b565b8114611857575f80fd5b50565b5f8135905061186881611844565b92915050565b5f60208284031215611883576118826114ff565b5b5f6118908482850161185a565b91505092915050565b6118a28161183b565b82525050565b5f6020820190506118bb5f830184611899565b92915050565b5f67ffffffffffffffff82169050919050565b6118dd816118c1565b81146118e7575f80fd5b50565b5f813590506118f8816118d4565b92915050565b5f63ffffffff82169050919050565b611916816118fe565b8114611920575f80fd5b50565b5f813590506119318161190d565b92915050565b5f805f806080858703121561194f5761194e6114ff565b5b5f85013567ffffffffffffffff81111561196c5761196b611503565b5b6119788782880161176f565b9450506020611989878288016118ea565b935050604061199a87828801611923565b92505060606119ab87828801611526565b91505092959194509250565b6119c081611507565b82525050565b5f6020820190506119d95f8301846119b7565b92915050565b6119e881611802565b81146119f2575f80fd5b50565b5f81359050611a03816119df565b92915050565b5f60208284031215611a1e57611a1d6114ff565b5b5f611a2b848285016119f5565b91505092915050565b5f81519050919050565b7f4e487b71000000000000000000000000000000000000000000000000000000005f52602260045260245ffd5b5f6002820490506001821680611a8257607f821691505b602082108103611a9557611a94611a3e565b5b50919050565b5f819050815f5260205f209050919050565b5f6020601f8301049050919050565b5f82821b905092915050565b5f60088302611af77fffffffffffffffffffffffffffffffffffffffffffffffffffffffffffffffff82611abc565b611b018683611abc565b95508019841693508086168417925050509392505050565b5f819050919050565b5f611b3c611b37611b328461183b565b611b19565b61183b565b9050919050565b5f819050919050565b611b5583611b22565b611b69611b6182611b43565b848454611ac8565b825550505050565b5f90565b611b7d611b71565b611b88818484611b4c565b505050565b5b81811015611bab57611ba05f82611b75565b600181019050611b8e565b5050565b601f821115611bf057611bc181611a9b565b611bca84611aad565b81016020851015611bd9578190505b611bed611be585611aad565b830182611b8d565b50505b505050565b5f82821c905092915050565b5f611c105f1984600802611bf5565b1980831691505092915050565b5f611c288383611c01565b9150826002028217905092915050565b611c4182611a34565b67ffffffffffffffff811115611c5a57611c59611552565b5b611c648254611a6b565b611c6f828285611baf565b5f60209050601f831160018114611ca0575f8415611c8e578287015190505b611c988582611c1d565b865550611cff565b601f198416611cae86611a9b565b5f5b82811015611cd557848901518255600182019150602085019450602081019050611cb0565b86831015611cf25784890151611cee601f891682611c01565b8355505b6001600288020188555050505b505050505050565b5f82825260208201905092915050565b7f4d7573742062652070726f706f736564206f776e6572000000000000000000005f82015250565b5f611d4b601683611d07565b9150611d5682611d17565b602082019050919050565b5f6020820190508181035f830152611d7881611d3f565b9050919050565b7f4e487b71000000000000000000000000000000000000000000000000000000005f52603260045260245ffd5b5f5b83811015611dc9578082015181840152602081019050611dae565b5f8484015250505050565b5f611dde82611a34565b611de88185611d07565b9350611df8818560208601611dac565b611e0181611542565b840191505092915050565b5f6020820190508181035f830152611e248184611dd4565b905092915050565b5f81519050611e3a81611844565b92915050565b5f8060408385031215611e5657611e556114ff565b5b5f611e6385828601611e2c565b9250506020611e7485828601611e2c565b9150509250929050565b7f4f6e6c792063616c6c61626c65206279206f776e6572000000000000000000005f82015250565b5f611eb2601683611d07565b9150611ebd82611e7e565b602082019050919050565b5f6020820190508181035f830152611edf81611ea6565b9050919050565b7f4e487b71000000000000000000000000000000000000000000000000000000005f52602160045260245ffd5b611f1c816118c1565b82525050565b5f81519050919050565b5f82825260208201905092915050565b5f611f4682611f22565b611f508185611f2c565b9350611f60818560208601611dac565b611f6981611542565b840191505092915050565b5f61ffff82169050919050565b611f8a81611f74565b82525050565b611f99816118fe565b82525050565b5f60a082019050611fb25f830188611f13565b8181036020830152611fc48187611f3c565b9050611fd36040830186611f81565b611fe06060830185611f90565b611fed60808301846119b7565b9695505050505050565b5f8151905061200581611510565b92915050565b5f602082840312156120205761201f6114ff565b5b5f61202d84828501611ff7565b91505092915050565b7f43616e6e6f74207472616e7366657220746f2073656c660000000000000000005f82015250565b5f61206a601783611d07565b915061207582612036565b602082019050919050565b5f6020820190508181035f8301526120978161205e565b9050919050565b7f4e487b71000000000000000000000000000000000000000000000000000000005f52601160045260245ffd5b5f6120d58261183b565b91506120e08361183b565b92508282019050808211156120f8576120f761209e565b5b92915050565b5f6121088261183b565b91506121138361183b565b925082820390508181111561212b5761212a61209e565b5b92915050565b7f4e487b71000000000000000000000000000000000000000000000000000000005f52601260045260245ffd5b5f6121688261183b565b91506121738361183b565b92508261218357612182612131565b5b828206905092915050565b5f6121988261183b565b91506121a38361183b565b92508282026121b18161183b565b915082820484148315176121c8576121c761209e565b5b5092915050565b5f8160011c9050919050565b5f808291508390505b600185111561222457808604811115612200576121ff61209e565b5b600185161561220f5780820291505b808102905061221d856121cf565b94506121e4565b94509492505050565b5f8261223c57600190506122f7565b81612249575f90506122f7565b816001811461225f576002811461226957612298565b60019150506122f7565b60ff84111561227b5761227a61209e565b5b8360020a9150848211156122925761229161209e565b5b506122f7565b5060208310610133831016604e8410600b84101617156122cd5782820a9050838111156122c8576122c761209e565b5b6122f7565b6122da84848460016121db565b925090508184048111156122f1576122f061209e565b5b81810290505b9392505050565b5f6123088261183b565b91506123138361183b565b92506123407fffffffffffffffffffffffffffffffffffffffffffffffffffffffffffffffff848461222d565b90509291505056fea2646970667358221220ceb21bc217e34b65775ce6a481b06f631c2f3fe64af9f68feb1691c241f6cbac64736f6c63430008180033","linkReferences":{}},"methodIdentifiers":{"acceptOwnership()":"79ba5097","getValuationInUsdc(uint256)":"8dd1ffa6","handleOracleFulfillment(bytes32,bytes,bytes)":"0ca76175","owner()":"8da5cb5b","setAutomationForwarder(address)":"d40d17bc","setPriceScript(string)":"24be11c6","setRequestUrl(string)":"b880c882","transferOwnership(address)":"f2fde38b","updatePriceDetails(string,uint64,uint32,bytes32)":"a843a0ab"},"id":79}