{"abi":[{"type":"constructor","inputs":[{"name":"_lkToken","type":"address","internalType":"address"}],"stateMutability":"nonpayable"},{"type":"function","name":"borrowFromLendingPool","inputs":[{"name":"stablecoin","type":"address","internalType":"address"},{"name":"amount","type":"uint256","internalType":"uint256"}],"outputs":[],"stateMutability":"nonpayable"},{"type":"function","name":"depositERC1155","inputs":[{"name":"nftContract","type":"address","internalType":"address"},{"name":"tokenId","type":"uint256","internalType":"uint256"}],"outputs":[],"stateMutability":"nonpayable"},{"type":"function","name":"depositERC721","inputs":[{"name":"nftContract","type":"address","internalType":"address"},{"name":"tokenId","type":"uint256","internalType":"uint256"}],"outputs":[],"stateMutability":"nonpayable"},{"type":"function","name":"depositToLendingPool","inputs":[{"name":"amount","type":"uint256","internalType":"uint256"}],"outputs":[],"stateMutability":"nonpayable"},{"type":"function","name":"getLendingPoolAccountData","inputs":[],"outputs":[{"name":"totalCollateralValue","type":"uint256","internalType":"uint256"},{"name":"totalDebtValue","type":"uint256","internalType":"uint256"},{"name":"availableBorrowsValue","type":"uint256","internalType":"uint256"},{"name":"currentLiquidationThreshold","type":"uint256","internalType":"uint256"},{"name":"healthFactor","type":"uint256","internalType":"uint256"}],"stateMutability":"view"},{"type":"function","name":"i_lkToken","inputs":[],"outputs":[{"name":"","type":"address","internalType":"contract ILKToken"}],"stateMutability":"view"},{"type":"function","name":"lendingPool","inputs":[],"outputs":[{"name":"","type":"address","internalType":"contract ILKLendingPool"}],"stateMutability":"view"},{"type":"function","name":"liquidate","inputs":[{"name":"tokenId","type":"uint256","internalType":"uint256"}],"outputs":[],"stateMutability":"nonpayable"},{"type":"function","name":"onERC1155BatchReceived","inputs":[{"name":"","type":"address","internalType":"address"},{"name":"","type":"address","internalType":"address"},{"name":"","type":"uint256[]","internalType":"uint256[]"},{"name":"","type":"uint256[]","internalType":"uint256[]"},{"name":"","type":"bytes","internalType":"bytes"}],"outputs":[{"name":"","type":"bytes4","internalType":"bytes4"}],"stateMutability":"nonpayable"},{"type":"function","name":"onERC1155Received","inputs":[{"name":"","type":"address","internalType":"address"},{"name":"","type":"address","internalType":"address"},{"name":"","type":"uint256","internalType":"uint256"},{"name":"","type":"uint256","internalType":"uint256"},{"name":"","type":"bytes","internalType":"bytes"}],"outputs":[{"name":"","type":"bytes4","internalType":"bytes4"}],"stateMutability":"nonpayable"},{"type":"function","name":"onERC721Received","inputs":[{"name":"","type":"address","internalType":"address"},{"name":"","type":"address","internalType":"address"},{"name":"","type":"uint256","internalType":"uint256"},{"name":"","type":"bytes","internalType":"bytes"}],"outputs":[{"name":"","type":"bytes4","internalType":"bytes4"}],"stateMutability":"nonpayable"},{"type":"function","name":"owner","inputs":[],"outputs":[{"name":"","type":"address","internalType":"address"}],"stateMutability":"view"},{"type":"function","name":"redeem","inputs":[{"name":"tokenId","type":"uint256","internalType":"uint256"}],"outputs":[],"stateMutability":"nonpayable"},{"type":"function","name":"renounceOwnership","inputs":[],"outputs":[],"stateMutability":"nonpayable"},{"type":"function","name":"repayToLendingPool","inputs":[{"name":"stablecoin","type":"address","internalType":"address"},{"name":"amount","type":"uint256","internalType":"uint256"}],"outputs":[],"stateMutability":"nonpayable"},{"type":"function","name":"setLendingPool","inputs":[{"name":"_lendingPool","type":"address","internalType":"address"}],"outputs":[],"stateMutability":"nonpayable"},{"type":"function","name":"supportsInterface","inputs":[{"name":"interfaceId","type":"bytes4","internalType":"bytes4"}],"outputs":[{"name":"","type":"bool","internalType":"bool"}],"stateMutability":"view"},{"type":"function","name":"tokenIdToVault","inputs":[{"name":"","type":"uint256","internalType":"uint256"}],"outputs":[{"name":"nftContract","type":"address","internalType":"address"},{"name":"tokenId","type":"uint256","internalType":"uint256"},{"name":"isERC1155","type":"bool","internalType":"bool"},{"name":"deposited","type":"bool","internalType":"bool"},{"name":"user","type":"address","internalType":"address"}],"stateMutability":"view"},{"type":"function","name":"transferOwnership","inputs":[{"name":"newOwner","type":"address","internalType":"address"}],"outputs":[],"stateMutability":"nonpayable"},{"type":"function","name":"userBorrow","inputs":[{"name":"user","type":"address","internalType":"address"}],"outputs":[{"name":"amount","type":"uint256","internalType":"uint256"}],"stateMutability":"view"},{"type":"function","name":"withdrawFromLendingPool","inputs":[{"name":"amount","type":"uint256","internalType":"uint256"}],"outputs":[],"stateMutability":"nonpayable"},{"type":"event","name":"CollateralDepositedToPool","inputs":[{"name":"user","type":"address","indexed":true,"internalType":"address"},{"name":"amount","type":"uint256","indexed":false,"internalType":"uint256"}],"anonymous":false},{"type":"event","name":"CollateralWithdrawn","inputs":[{"name":"user","type":"address","indexed":true,"internalType":"address"},{"name":"amount","type":"uint256","indexed":false,"internalType":"uint256"}],"anonymous":false},{"type":"event","name":"Deposited","inputs":[{"name":"user","type":"address","indexed":true,"internalType":"address"},{"name":"nftContract","type":"address","indexed":true,"internalType":"address"},{"name":"tokenId","type":"uint256","indexed":true,"internalType":"uint256"},{"name":"isERC1155","type":"bool","indexed":false,"internalType":"bool"}],"anonymous":false},{"type":"event","name":"LendingPoolSet","inputs":[{"name":"lendingPool","type":"address","indexed":true,"internalType":"address"}],"anonymous":false},{"type":"event","name":"Liquidated","inputs":[{"name":"tokenId","type":"uint256","indexed":true,"internalType":"uint256"},{"name":"liquidator","type":"address","indexed":true,"internalType":"address"},{"name":"owner","type":"address","indexed":true,"internalType":"address"},{"name":"repayAmount","type":"uint256","indexed":false,"internalType":"uint256"},{"name":"liquidatorReward","type":"uint256","indexed":false,"internalType":"uint256"},{"name":"borrowerSurplus","type":"uint256","indexed":false,"internalType":"uint256"}],"anonymous":false},{"type":"event","name":"OwnershipTransferred","inputs":[{"name":"previousOwner","type":"address","indexed":true,"internalType":"address"},{"name":"newOwner","type":"address","indexed":true,"internalType":"address"}],"anonymous":false},{"type":"event","name":"Redeemed","inputs":[{"name":"tokenId","type":"uint256","indexed":true,"internalType":"uint256"},{"name":"user","type":"address","indexed":true,"internalType":"address"}],"anonymous":false},{"type":"event","name":"StablecoinBorrowed","inputs":[{"name":"user","type":"address","indexed":true,"internalType":"address"},{"name":"stablecoin","type":"address","indexed":true,"internalType":"address"},{"name":"amount","type":"uint256","indexed":false,"internalType":"uint256"}],"anonymous":false},{"type":"event","name":"StablecoinRepaid","inputs":[{"name":"user","type":"address","indexed":true,"internalType":"address"},{"name":"stablecoin","type":"address","indexed":true,"internalType":"address"},{"name":"amount","type":"uint256","indexed":false,"internalType":"uint256"}],"anonymous":false},{"type":"error","name":"OwnableInvalidOwner","inputs":[{"name":"owner","type":"address","internalType":"address"}]},{"type":"error","name":"OwnableUnauthorizedAccount","inputs":[{"name":"account","type":"address","internalType":"address"}]},{"type":"error","name":"ReentrancyGuardReentrantCall","inputs":[]},{"type":"error","name":"SafeERC20FailedOperation","inputs":[{"name":"token","type":"address","internalType":"address"}]}],"bytecode":{"object":"0x60e0604052600380556005600455603c60a090815250605060c09081525034801562000029575f80fd5b5060405162003e9238038062003e9283398181016040528101906200004f91906200023d565b335f73ffffffffffffffffffffffffffffffffffffffff168173ffffffffffffffffffffffffffffffffffffffff1603620000c3575f6040517f1e4fbdf7000000000000000000000000000000000000000000000000000000008152600401620000ba91906200027e565b60405180910390fd5b620000d4816200011760201b60201c565b50600180819055508073ffffffffffffffffffffffffffffffffffffffff1660808173ffffffffffffffffffffffffffffffffffffffff16815250505062000299565b5f805f9054906101000a900473ffffffffffffffffffffffffffffffffffffffff169050815f806101000a81548173ffffffffffffffffffffffffffffffffffffffff021916908373ffffffffffffffffffffffffffffffffffffffff1602179055508173ffffffffffffffffffffffffffffffffffffffff168173ffffffffffffffffffffffffffffffffffffffff167f8be0079c531659141344cd1fd0a4f28419497f9722a3daafe3b4186f6b6457e060405160405180910390a35050565b5f80fd5b5f73ffffffffffffffffffffffffffffffffffffffff82169050919050565b5f6200020782620001dc565b9050919050565b6200021981620001fb565b811462000224575f80fd5b50565b5f8151905062000237816200020e565b92915050565b5f60208284031215620002555762000254620001d8565b5b5f620002648482850162000227565b91505092915050565b6200027881620001fb565b82525050565b5f602082019050620002935f8301846200026d565b92915050565b60805160a05160c051613b576200033b5f395f61081a01525f6114fd01525f8181610724015281816108b00152818161094c01528181610a2c01528181610ac80152818161146001528181611535015281816117f2015281816118fd01528181611abf01528181611b5d01528181611d5a01528181611df501528181611f1401528181611fb0015281816122d5015281816123ae015261244c0152613b575ff3fe608060405234801561000f575f80fd5b5060043610610135575f3560e01c8063a59a9973116100b6578063db006a751161007a578063db006a7514610325578063dbd8578114610341578063e12bc5541461035d578063f23a6e611461038d578063f2fde38b146103bd578063fb2de2c8146103d957610135565b8063a59a997314610281578063affc1d971461029f578063bc197c81146102bb578063c812221d146102eb578063d29a4bf61461030957610135565b8063540b64ee116100fd578063540b64ee14610205578063693ad6d3146102215780636ce38a061461023d578063715018a6146102595780638da5cb5b1461026357610135565b806301ffc9a714610139578063113aa8b114610169578063150b7a021461018557806316ffc423146101b5578063415f1240146101e9575b5f80fd5b610153600480360381019061014e9190612bdb565b6103fb565b6040516101609190612c20565b60405180910390f35b610183600480360381019061017e9190612c93565b610474565b005b61019f600480360381019061019a9190612e2d565b610570565b6040516101ac9190612ebc565b60405180910390f35b6101cf60048036038101906101ca9190612ed5565b610583565b6040516101e0959493929190612f1e565b60405180910390f35b61020360048036038101906101fe9190612ed5565b61060d565b005b61021f600480360381019061021a9190612f6f565b610d3d565b005b61023b60048036038101906102369190612f6f565b61101f565b005b61025760048036038101906102529190612f6f565b6112bc565b005b610261611631565b005b61026b611644565b6040516102789190612fad565b60405180910390f35b61028961166b565b6040516102969190613021565b60405180910390f35b6102b960048036038101906102b49190612ed5565b611690565b005b6102d560048036038101906102d091906130fe565b6118e7565b6040516102e29190612ebc565b60405180910390f35b6102f36118fb565b60405161030091906131e9565b60405180910390f35b610323600480360381019061031e9190612f6f565b61191f565b005b61033f600480360381019061033a9190612ed5565b611c58565b005b61035b60048036038101906103569190612ed5565b6121f9565b005b61037760048036038101906103729190612c93565b6125e7565b6040516103849190613202565b60405180910390f35b6103a760048036038101906103a2919061321b565b6125fc565b6040516103b49190612ebc565b60405180910390f35b6103d760048036038101906103d29190612c93565b612610565b005b6103e1612694565b6040516103f29594939291906132ae565b60405180910390f35b5f7f4e2312e0000000000000000000000000000000000000000000000000000000007bffffffffffffffffffffffffffffffffffffffffffffffffffffffff1916827bffffffffffffffffffffffffffffffffffffffffffffffffffffffff1916148061046d575061046c826127d2565b5b9050919050565b61047c61283b565b5f73ffffffffffffffffffffffffffffffffffffffff168173ffffffffffffffffffffffffffffffffffffffff16036104ea576040517f08c379a00000000000000000000000000000000000000000000000000000000081526004016104e190613359565b60405180910390fd5b8060025f6101000a81548173ffffffffffffffffffffffffffffffffffffffff021916908373ffffffffffffffffffffffffffffffffffffffff1602179055508073ffffffffffffffffffffffffffffffffffffffff167f1222804283c650162c0f858b42dcc4564e940f0cc2b3f001bcd6af8aa00a2f3060405160405180910390a250565b5f63150b7a0260e01b9050949350505050565b6006602052805f5260405f205f91509050805f015f9054906101000a900473ffffffffffffffffffffffffffffffffffffffff1690806001015490806002015f9054906101000a900460ff16908060020160019054906101000a900460ff16908060020160029054906101000a900473ffffffffffffffffffffffffffffffffffffffff16905085565b6106156128c2565b5f60065f8381526020019081526020015f2090508060020160019054906101000a900460ff1661067a576040517f08c379a0000000000000000000000000000000000000000000000000000000008152600401610671906133c1565b60405180910390fd5b5f8160020160029054906101000a900473ffffffffffffffffffffffffffffffffffffffff1690505f60055f8373ffffffffffffffffffffffffffffffffffffffff1673ffffffffffffffffffffffffffffffffffffffff1681526020019081526020015f205411610721576040517f08c379a000000000000000000000000000000000000000000000000000000000815260040161071890613429565b60405180910390fd5b5f7f000000000000000000000000000000000000000000000000000000000000000073ffffffffffffffffffffffffffffffffffffffff1663cc87adea856040518263ffffffff1660e01b815260040161077b9190613202565b6040805180830381865afa158015610795573d5f803e3d5ffd5b505050506040513d601f19601f820116820180604052508101906107b9919061345b565b9150505f60055f8473ffffffffffffffffffffffffffffffffffffffff1673ffffffffffffffffffffffffffffffffffffffff1681526020019081526020015f205490505f8160648461080c91906134c6565b6108169190613534565b90507f0000000000000000000000000000000000000000000000000000000000000000811061087a576040517f08c379a0000000000000000000000000000000000000000000000000000000008152600401610871906135ae565b60405180910390fd5b5f8290505f60646004548361088f91906134c6565b6108999190613534565b90505f81836108a891906135cc565b90505f8690507f000000000000000000000000000000000000000000000000000000000000000073ffffffffffffffffffffffffffffffffffffffff1663095ea7b330846040518363ffffffff1660e01b81526004016109099291906135ff565b6020604051808303815f875af1158015610925573d5f803e3d5ffd5b505050506040513d601f19601f820116820180604052508101906109499190613650565b507f000000000000000000000000000000000000000000000000000000000000000073ffffffffffffffffffffffffffffffffffffffff166323b872dd3330856040518463ffffffff1660e01b81526004016109a79392919061367b565b6020604051808303815f875af11580156109c3573d5f803e3d5ffd5b505050506040513d601f19601f820116820180604052508101906109e79190613650565b505f60055f8a73ffffffffffffffffffffffffffffffffffffffff1673ffffffffffffffffffffffffffffffffffffffff1681526020019081526020015f20819055507f000000000000000000000000000000000000000000000000000000000000000073ffffffffffffffffffffffffffffffffffffffff1663095ea7b389836040518363ffffffff1660e01b8152600401610a859291906135ff565b6020604051808303815f875af1158015610aa1573d5f803e3d5ffd5b505050506040513d601f19601f82011682018060405250810190610ac59190613650565b507f000000000000000000000000000000000000000000000000000000000000000073ffffffffffffffffffffffffffffffffffffffff166323b872dd308a846040518463ffffffff1660e01b8152600401610b239392919061367b565b6020604051808303815f875af1158015610b3f573d5f803e3d5ffd5b505050506040513d601f19601f82011682018060405250810190610b639190613650565b50886002015f9054906101000a900460ff1615610c1257885f015f9054906101000a900473ffffffffffffffffffffffffffffffffffffffff1673ffffffffffffffffffffffffffffffffffffffff1663f242432a308a8c6001015460016040518563ffffffff1660e01b8152600401610be0949392919061371c565b5f604051808303815f87803b158015610bf7575f80fd5b505af1158015610c09573d5f803e3d5ffd5b50505050610ca3565b885f015f9054906101000a900473ffffffffffffffffffffffffffffffffffffffff1673ffffffffffffffffffffffffffffffffffffffff166342842e0e308a8c600101546040518463ffffffff1660e01b8152600401610c759392919061367b565b5f604051808303815f87803b158015610c8c575f80fd5b505af1158015610c9e573d5f803e3d5ffd5b505050505b5f8960020160016101000a81548160ff0219169083151502179055508773ffffffffffffffffffffffffffffffffffffffff163373ffffffffffffffffffffffffffffffffffffffff168b7f22600a0aa3d39e677ae2697808c1828d8dec8a7b140cd5b367ea68783b19015a878786604051610d2193929190613772565b60405180910390a4505050505050505050610d3a612908565b50565b610d456128c2565b5f73ffffffffffffffffffffffffffffffffffffffff1660025f9054906101000a900473ffffffffffffffffffffffffffffffffffffffff1673ffffffffffffffffffffffffffffffffffffffff1603610dd4576040517f08c379a0000000000000000000000000000000000000000000000000000000008152600401610dcb906137f1565b60405180910390fd5b5f8111610e16576040517f08c379a0000000000000000000000000000000000000000000000000000000008152600401610e0d90613859565b60405180910390fd5b5f60025f9054906101000a900473ffffffffffffffffffffffffffffffffffffffff1673ffffffffffffffffffffffffffffffffffffffff1663bf92857c306040518263ffffffff1660e01b8152600401610e719190612fad565b60a060405180830381865afa158015610e8c573d5f803e3d5ffd5b505050506040513d601f19601f82011682018060405250810190610eb09190613877565b50509250505081811015610ef9576040517f08c379a0000000000000000000000000000000000000000000000000000000008152600401610ef090613938565b60405180910390fd5b60025f9054906101000a900473ffffffffffffffffffffffffffffffffffffffff1673ffffffffffffffffffffffffffffffffffffffff166361b7621884846040518363ffffffff1660e01b8152600401610f559291906135ff565b5f604051808303815f87803b158015610f6c575f80fd5b505af1158015610f7e573d5f803e3d5ffd5b50505050610fad33838573ffffffffffffffffffffffffffffffffffffffff166129119092919063ffffffff16565b8273ffffffffffffffffffffffffffffffffffffffff163373ffffffffffffffffffffffffffffffffffffffff167fcee8cf122c4ec1846315f19cc8ed6a57655291c63b0ae7c6d774e3f0df7b58d68460405161100a9190613202565b60405180910390a35061101b612908565b5050565b6110276128c2565b5f73ffffffffffffffffffffffffffffffffffffffff1660025f9054906101000a900473ffffffffffffffffffffffffffffffffffffffff1673ffffffffffffffffffffffffffffffffffffffff16036110b6576040517f08c379a00000000000000000000000000000000000000000000000000000000081526004016110ad906137f1565b60405180910390fd5b5f81116110f8576040517f08c379a00000000000000000000000000000000000000000000000000000000081526004016110ef90613859565b60405180910390fd5b6111253330838573ffffffffffffffffffffffffffffffffffffffff16612990909392919063ffffffff16565b8173ffffffffffffffffffffffffffffffffffffffff1663095ea7b360025f9054906101000a900473ffffffffffffffffffffffffffffffffffffffff16836040518363ffffffff1660e01b81526004016111819291906135ff565b6020604051808303815f875af115801561119d573d5f803e3d5ffd5b505050506040513d601f19601f820116820180604052508101906111c19190613650565b5060025f9054906101000a900473ffffffffffffffffffffffffffffffffffffffff1673ffffffffffffffffffffffffffffffffffffffff166393a595f583836040518363ffffffff1660e01b815260040161121e9291906135ff565b5f604051808303815f87803b158015611235575f80fd5b505af1158015611247573d5f803e3d5ffd5b505050508173ffffffffffffffffffffffffffffffffffffffff163373ffffffffffffffffffffffffffffffffffffffff167f237872067baf4ce9c39d81512784bcd1b6073b909f1d9a19e3e0c58d9143118b836040516112a89190613202565b60405180910390a36112b8612908565b5050565b6112c46128c2565b5f60065f8381526020019081526020015f2090508060020160019054906101000a900460ff161561132a576040517f08c379a0000000000000000000000000000000000000000000000000000000008152600401611321906139a0565b60405180910390fd5b8273ffffffffffffffffffffffffffffffffffffffff1663f242432a33308560016040518563ffffffff1660e01b815260040161136a949392919061371c565b5f604051808303815f87803b158015611381575f80fd5b505af1158015611393573d5f803e3d5ffd5b5050505082815f015f6101000a81548173ffffffffffffffffffffffffffffffffffffffff021916908373ffffffffffffffffffffffffffffffffffffffff1602179055508181600101819055506001816002015f6101000a81548160ff02191690831515021790555060018160020160016101000a81548160ff021916908315150217905550338160020160026101000a81548173ffffffffffffffffffffffffffffffffffffffff021916908373ffffffffffffffffffffffffffffffffffffffff1602179055505f7f000000000000000000000000000000000000000000000000000000000000000073ffffffffffffffffffffffffffffffffffffffff1663cc87adea846040518263ffffffff1660e01b81526004016114b79190613202565b6040805180830381865afa1580156114d1573d5f803e3d5ffd5b505050506040513d601f19601f820116820180604052508101906114f5919061345b565b9150505f60647f00000000000000000000000000000000000000000000000000000000000000008361152791906134c6565b6115319190613534565b90507f000000000000000000000000000000000000000000000000000000000000000073ffffffffffffffffffffffffffffffffffffffff166340c10f1933836040518363ffffffff1660e01b815260040161158e9291906135ff565b5f604051808303815f87803b1580156115a5575f80fd5b505af11580156115b7573d5f803e3d5ffd5b50505050838573ffffffffffffffffffffffffffffffffffffffff163373ffffffffffffffffffffffffffffffffffffffff167fb32af138549e2a71563d1f2b1f7f0a139b3cdbc83d877d13603de1c3c5fd487a600160405161161a9190612c20565b60405180910390a450505061162d612908565b5050565b61163961283b565b6116425f612a12565b565b5f805f9054906101000a900473ffffffffffffffffffffffffffffffffffffffff16905090565b60025f9054906101000a900473ffffffffffffffffffffffffffffffffffffffff1681565b6116986128c2565b5f73ffffffffffffffffffffffffffffffffffffffff1660025f9054906101000a900473ffffffffffffffffffffffffffffffffffffffff1673ffffffffffffffffffffffffffffffffffffffff1603611727576040517f08c379a000000000000000000000000000000000000000000000000000000000815260040161171e906137f1565b60405180910390fd5b5f8111611769576040517f08c379a000000000000000000000000000000000000000000000000000000000815260040161176090613859565b60405180910390fd5b60025f9054906101000a900473ffffffffffffffffffffffffffffffffffffffff1673ffffffffffffffffffffffffffffffffffffffff16636112fe2e826040518263ffffffff1660e01b81526004016117c39190613202565b5f604051808303815f87803b1580156117da575f80fd5b505af11580156117ec573d5f803e3d5ffd5b505050507f000000000000000000000000000000000000000000000000000000000000000073ffffffffffffffffffffffffffffffffffffffff166323b872dd3033846040518463ffffffff1660e01b815260040161184d9392919061367b565b6020604051808303815f875af1158015611869573d5f803e3d5ffd5b505050506040513d601f19601f8201168201806040525081019061188d9190613650565b503373ffffffffffffffffffffffffffffffffffffffff167fc30fcfbcaac9e0deffa719714eaa82396ff506a0d0d0eebe170830177288715d826040516118d49190613202565b60405180910390a26118e4612908565b50565b5f63bc197c8160e01b905095945050505050565b7f000000000000000000000000000000000000000000000000000000000000000081565b6119276128c2565b5f60065f8381526020019081526020015f2090508060020160019054906101000a900460ff161561198d576040517f08c379a0000000000000000000000000000000000000000000000000000000008152600401611984906139a0565b60405180910390fd5b8273ffffffffffffffffffffffffffffffffffffffff166342842e0e3330856040518463ffffffff1660e01b81526004016119ca9392919061367b565b5f604051808303815f87803b1580156119e1575f80fd5b505af11580156119f3573d5f803e3d5ffd5b5050505082815f015f6101000a81548173ffffffffffffffffffffffffffffffffffffffff021916908373ffffffffffffffffffffffffffffffffffffffff1602179055508181600101819055505f816002015f6101000a81548160ff02191690831515021790555060018160020160016101000a81548160ff021916908315150217905550338160020160026101000a81548173ffffffffffffffffffffffffffffffffffffffff021916908373ffffffffffffffffffffffffffffffffffffffff1602179055505f7f000000000000000000000000000000000000000000000000000000000000000073ffffffffffffffffffffffffffffffffffffffff1663cc87adea846040518263ffffffff1660e01b8152600401611b169190613202565b6040805180830381865afa158015611b30573d5f803e3d5ffd5b505050506040513d601f19601f82011682018060405250810190611b54919061345b565b9150505f8190507f000000000000000000000000000000000000000000000000000000000000000073ffffffffffffffffffffffffffffffffffffffff166340c10f1933836040518363ffffffff1660e01b8152600401611bb69291906135ff565b5f604051808303815f87803b158015611bcd575f80fd5b505af1158015611bdf573d5f803e3d5ffd5b50505050838573ffffffffffffffffffffffffffffffffffffffff163373ffffffffffffffffffffffffffffffffffffffff167fb32af138549e2a71563d1f2b1f7f0a139b3cdbc83d877d13603de1c3c5fd487a5f604051611c419190612c20565b60405180910390a4505050611c54612908565b5050565b611c606128c2565b5f60065f8381526020019081526020015f2090508060020160019054906101000a900460ff16611cc5576040517f08c379a0000000000000000000000000000000000000000000000000000000008152600401611cbc906133c1565b60405180910390fd5b3373ffffffffffffffffffffffffffffffffffffffff168160020160029054906101000a900473ffffffffffffffffffffffffffffffffffffffff1673ffffffffffffffffffffffffffffffffffffffff1614611d57576040517f08c379a0000000000000000000000000000000000000000000000000000000008152600401611d4e90613a08565b60405180910390fd5b5f7f000000000000000000000000000000000000000000000000000000000000000073ffffffffffffffffffffffffffffffffffffffff166370a08231336040518263ffffffff1660e01b8152600401611db19190612fad565b602060405180830381865afa158015611dcc573d5f803e3d5ffd5b505050506040513d601f19601f82011682018060405250810190611df09190613a26565b90505f7f000000000000000000000000000000000000000000000000000000000000000073ffffffffffffffffffffffffffffffffffffffff1663cc87adea856040518263ffffffff1660e01b8152600401611e4c9190613202565b6040805180830381865afa158015611e66573d5f803e3d5ffd5b505050506040513d601f19601f82011682018060405250810190611e8a919061345b565b91505080821015611ed0576040517f08c379a0000000000000000000000000000000000000000000000000000000008152600401611ec790613a9b565b60405180910390fd5b5f60055f3373ffffffffffffffffffffffffffffffffffffffff1673ffffffffffffffffffffffffffffffffffffffff1681526020019081526020015f20819055507f000000000000000000000000000000000000000000000000000000000000000073ffffffffffffffffffffffffffffffffffffffff1663095ea7b330836040518363ffffffff1660e01b8152600401611f6d9291906135ff565b6020604051808303815f875af1158015611f89573d5f803e3d5ffd5b505050506040513d601f19601f82011682018060405250810190611fad9190613650565b507f000000000000000000000000000000000000000000000000000000000000000073ffffffffffffffffffffffffffffffffffffffff166323b872dd3330846040518463ffffffff1660e01b815260040161200b9392919061367b565b6020604051808303815f875af1158015612027573d5f803e3d5ffd5b505050506040513d601f19601f8201168201806040525081019061204b9190613650565b505f8360020160016101000a81548160ff021916908315150217905550826002015f9054906101000a900460ff161561211657825f015f9054906101000a900473ffffffffffffffffffffffffffffffffffffffff1673ffffffffffffffffffffffffffffffffffffffff1663f242432a3033866001015460016040518563ffffffff1660e01b81526004016120e4949392919061371c565b5f604051808303815f87803b1580156120fb575f80fd5b505af115801561210d573d5f803e3d5ffd5b505050506121a7565b825f015f9054906101000a900473ffffffffffffffffffffffffffffffffffffffff1673ffffffffffffffffffffffffffffffffffffffff166342842e0e303386600101546040518463ffffffff1660e01b81526004016121799392919061367b565b5f604051808303815f87803b158015612190575f80fd5b505af11580156121a2573d5f803e3d5ffd5b505050505b3373ffffffffffffffffffffffffffffffffffffffff16847fc5fcfb68332ef11d542d4ab7e75045a5e4d66eb2d8f846f13a48356b32e534db60405160405180910390a35050506121f6612908565b50565b6122016128c2565b5f73ffffffffffffffffffffffffffffffffffffffff1660025f9054906101000a900473ffffffffffffffffffffffffffffffffffffffff1673ffffffffffffffffffffffffffffffffffffffff1603612290576040517f08c379a0000000000000000000000000000000000000000000000000000000008152600401612287906137f1565b60405180910390fd5b5f81116122d2576040517f08c379a00000000000000000000000000000000000000000000000000000000081526004016122c990613859565b60405180910390fd5b807f000000000000000000000000000000000000000000000000000000000000000073ffffffffffffffffffffffffffffffffffffffff166370a08231336040518263ffffffff1660e01b815260040161232c9190612fad565b602060405180830381865afa158015612347573d5f803e3d5ffd5b505050506040513d601f19601f8201168201806040525081019061236b9190613a26565b10156123ac576040517f08c379a00000000000000000000000000000000000000000000000000000000081526004016123a390613b03565b60405180910390fd5b7f000000000000000000000000000000000000000000000000000000000000000073ffffffffffffffffffffffffffffffffffffffff166323b872dd3330846040518463ffffffff1660e01b81526004016124099392919061367b565b6020604051808303815f875af1158015612425573d5f803e3d5ffd5b505050506040513d601f19601f820116820180604052508101906124499190613650565b507f000000000000000000000000000000000000000000000000000000000000000073ffffffffffffffffffffffffffffffffffffffff1663095ea7b360025f9054906101000a900473ffffffffffffffffffffffffffffffffffffffff16836040518363ffffffff1660e01b81526004016124c69291906135ff565b6020604051808303815f875af11580156124e2573d5f803e3d5ffd5b505050506040513d601f19601f820116820180604052508101906125069190613650565b5060025f9054906101000a900473ffffffffffffffffffffffffffffffffffffffff1673ffffffffffffffffffffffffffffffffffffffff1663bad4a01f826040518263ffffffff1660e01b81526004016125619190613202565b5f604051808303815f87803b158015612578575f80fd5b505af115801561258a573d5f803e3d5ffd5b505050503373ffffffffffffffffffffffffffffffffffffffff167f94be19af4782971a4a1c1d907cf29782b45103278f995556ba07c02f1219bba8826040516125d49190613202565b60405180910390a26125e4612908565b50565b6005602052805f5260405f205f915090505481565b5f63f23a6e6160e01b905095945050505050565b61261861283b565b5f73ffffffffffffffffffffffffffffffffffffffff168173ffffffffffffffffffffffffffffffffffffffff1603612688575f6040517f1e4fbdf700000000000000000000000000000000000000000000000000000000815260040161267f9190612fad565b60405180910390fd5b61269181612a12565b50565b5f805f805f8073ffffffffffffffffffffffffffffffffffffffff1660025f9054906101000a900473ffffffffffffffffffffffffffffffffffffffff1673ffffffffffffffffffffffffffffffffffffffff1603612728576040517f08c379a000000000000000000000000000000000000000000000000000000000815260040161271f906137f1565b60405180910390fd5b60025f9054906101000a900473ffffffffffffffffffffffffffffffffffffffff1673ffffffffffffffffffffffffffffffffffffffff1663bf92857c306040518263ffffffff1660e01b81526004016127829190612fad565b60a060405180830381865afa15801561279d573d5f803e3d5ffd5b505050506040513d601f19601f820116820180604052508101906127c19190613877565b945094509450945094509091929394565b5f7f01ffc9a7000000000000000000000000000000000000000000000000000000007bffffffffffffffffffffffffffffffffffffffffffffffffffffffff1916827bffffffffffffffffffffffffffffffffffffffffffffffffffffffff1916149050919050565b612843612ad3565b73ffffffffffffffffffffffffffffffffffffffff16612861611644565b73ffffffffffffffffffffffffffffffffffffffff16146128c057612884612ad3565b6040517f118cdaa70000000000000000000000000000000000000000000000000000000081526004016128b79190612fad565b60405180910390fd5b565b6002600154036128fe576040517f3ee5aeb500000000000000000000000000000000000000000000000000000000815260040160405180910390fd5b6002600181905550565b60018081905550565b61298b838473ffffffffffffffffffffffffffffffffffffffff1663a9059cbb85856040516024016129449291906135ff565b604051602081830303815290604052915060e01b6020820180517bffffffffffffffffffffffffffffffffffffffffffffffffffffffff8381831617835250505050612ada565b505050565b612a0c848573ffffffffffffffffffffffffffffffffffffffff166323b872dd8686866040516024016129c59392919061367b565b604051602081830303815290604052915060e01b6020820180517bffffffffffffffffffffffffffffffffffffffffffffffffffffffff8381831617835250505050612ada565b50505050565b5f805f9054906101000a900473ffffffffffffffffffffffffffffffffffffffff169050815f806101000a81548173ffffffffffffffffffffffffffffffffffffffff021916908373ffffffffffffffffffffffffffffffffffffffff1602179055508173ffffffffffffffffffffffffffffffffffffffff168173ffffffffffffffffffffffffffffffffffffffff167f8be0079c531659141344cd1fd0a4f28419497f9722a3daafe3b4186f6b6457e060405160405180910390a35050565b5f33905090565b5f8060205f8451602086015f885af180612af9576040513d5f823e3d81fd5b3d92505f519150505f8214612b12576001811415612b2d565b5f8473ffffffffffffffffffffffffffffffffffffffff163b145b15612b6f57836040517f5274afe7000000000000000000000000000000000000000000000000000000008152600401612b669190612fad565b60405180910390fd5b50505050565b5f604051905090565b5f80fd5b5f80fd5b5f7fffffffff0000000000000000000000000000000000000000000000000000000082169050919050565b612bba81612b86565b8114612bc4575f80fd5b50565b5f81359050612bd581612bb1565b92915050565b5f60208284031215612bf057612bef612b7e565b5b5f612bfd84828501612bc7565b91505092915050565b5f8115159050919050565b612c1a81612c06565b82525050565b5f602082019050612c335f830184612c11565b92915050565b5f73ffffffffffffffffffffffffffffffffffffffff82169050919050565b5f612c6282612c39565b9050919050565b612c7281612c58565b8114612c7c575f80fd5b50565b5f81359050612c8d81612c69565b92915050565b5f60208284031215612ca857612ca7612b7e565b5b5f612cb584828501612c7f565b91505092915050565b5f819050919050565b612cd081612cbe565b8114612cda575f80fd5b50565b5f81359050612ceb81612cc7565b92915050565b5f80fd5b5f80fd5b5f601f19601f8301169050919050565b7f4e487b71000000000000000000000000000000000000000000000000000000005f52604160045260245ffd5b612d3f82612cf9565b810181811067ffffffffffffffff82111715612d5e57612d5d612d09565b5b80604052505050565b5f612d70612b75565b9050612d7c8282612d36565b919050565b5f67ffffffffffffffff821115612d9b57612d9a612d09565b5b612da482612cf9565b9050602081019050919050565b828183375f83830152505050565b5f612dd1612dcc84612d81565b612d67565b905082815260208101848484011115612ded57612dec612cf5565b5b612df8848285612db1565b509392505050565b5f82601f830112612e1457612e13612cf1565b5b8135612e24848260208601612dbf565b91505092915050565b5f805f8060808587031215612e4557612e44612b7e565b5b5f612e5287828801612c7f565b9450506020612e6387828801612c7f565b9350506040612e7487828801612cdd565b925050606085013567ffffffffffffffff811115612e9557612e94612b82565b5b612ea187828801612e00565b91505092959194509250565b612eb681612b86565b82525050565b5f602082019050612ecf5f830184612ead565b92915050565b5f60208284031215612eea57612ee9612b7e565b5b5f612ef784828501612cdd565b91505092915050565b612f0981612c58565b82525050565b612f1881612cbe565b82525050565b5f60a082019050612f315f830188612f00565b612f3e6020830187612f0f565b612f4b6040830186612c11565b612f586060830185612c11565b612f656080830184612f00565b9695505050505050565b5f8060408385031215612f8557612f84612b7e565b5b5f612f9285828601612c7f565b9250506020612fa385828601612cdd565b9150509250929050565b5f602082019050612fc05f830184612f00565b92915050565b5f819050919050565b5f612fe9612fe4612fdf84612c39565b612fc6565b612c39565b9050919050565b5f612ffa82612fcf565b9050919050565b5f61300b82612ff0565b9050919050565b61301b81613001565b82525050565b5f6020820190506130345f830184613012565b92915050565b5f67ffffffffffffffff82111561305457613053612d09565b5b602082029050602081019050919050565b5f80fd5b5f61307b6130768461303a565b612d67565b9050808382526020820190506020840283018581111561309e5761309d613065565b5b835b818110156130c757806130b38882612cdd565b8452602084019350506020810190506130a0565b5050509392505050565b5f82601f8301126130e5576130e4612cf1565b5b81356130f5848260208601613069565b91505092915050565b5f805f805f60a0868803121561311757613116612b7e565b5b5f61312488828901612c7f565b955050602061313588828901612c7f565b945050604086013567ffffffffffffffff81111561315657613155612b82565b5b613162888289016130d1565b935050606086013567ffffffffffffffff81111561318357613182612b82565b5b61318f888289016130d1565b925050608086013567ffffffffffffffff8111156131b0576131af612b82565b5b6131bc88828901612e00565b9150509295509295909350565b5f6131d382612ff0565b9050919050565b6131e3816131c9565b82525050565b5f6020820190506131fc5f8301846131da565b92915050565b5f6020820190506132155f830184612f0f565b92915050565b5f805f805f60a0868803121561323457613233612b7e565b5b5f61324188828901612c7f565b955050602061325288828901612c7f565b945050604061326388828901612cdd565b935050606061327488828901612cdd565b925050608086013567ffffffffffffffff81111561329557613294612b82565b5b6132a188828901612e00565b9150509295509295909350565b5f60a0820190506132c15f830188612f0f565b6132ce6020830187612f0f565b6132db6040830186612f0f565b6132e86060830185612f0f565b6132f56080830184612f0f565b9695505050505050565b5f82825260208201905092915050565b7f496e76616c6964206c656e64696e6720706f6f6c2061646472657373000000005f82015250565b5f613343601c836132ff565b915061334e8261330f565b602082019050919050565b5f6020820190508181035f83015261337081613337565b9050919050565b7f4e6f204e4654206465706f7369746564000000000000000000000000000000005f82015250565b5f6133ab6010836132ff565b91506133b682613377565b602082019050919050565b5f6020820190508181035f8301526133d88161339f565b9050919050565b7f4e6f20626f72726f7700000000000000000000000000000000000000000000005f82015250565b5f6134136009836132ff565b915061341e826133df565b602082019050919050565b5f6020820190508181035f83015261344081613407565b9050919050565b5f8151905061345581612cc7565b92915050565b5f806040838503121561347157613470612b7e565b5b5f61347e85828601613447565b925050602061348f85828601613447565b9150509250929050565b7f4e487b71000000000000000000000000000000000000000000000000000000005f52601160045260245ffd5b5f6134d082612cbe565b91506134db83612cbe565b92508282026134e981612cbe565b91508282048414831517613500576134ff613499565b5b5092915050565b7f4e487b71000000000000000000000000000000000000000000000000000000005f52601260045260245ffd5b5f61353e82612cbe565b915061354983612cbe565b92508261355957613558613507565b5b828204905092915050565b7f4865616c746820666163746f7220697320746f6f206c6f7700000000000000005f82015250565b5f6135986018836132ff565b91506135a382613564565b602082019050919050565b5f6020820190508181035f8301526135c58161358c565b9050919050565b5f6135d682612cbe565b91506135e183612cbe565b92508282019050808211156135f9576135f8613499565b5b92915050565b5f6040820190506136125f830185612f00565b61361f6020830184612f0f565b9392505050565b61362f81612c06565b8114613639575f80fd5b50565b5f8151905061364a81613626565b92915050565b5f6020828403121561366557613664612b7e565b5b5f6136728482850161363c565b91505092915050565b5f60608201905061368e5f830186612f00565b61369b6020830185612f00565b6136a86040830184612f0f565b949350505050565b5f819050919050565b5f6136d36136ce6136c9846136b0565b612fc6565b612cbe565b9050919050565b6136e3816136b9565b82525050565b5f82825260208201905092915050565b50565b5f6137075f836136e9565b9150613712826136f9565b5f82019050919050565b5f60a08201905061372f5f830187612f00565b61373c6020830186612f00565b6137496040830185612f0f565b61375660608301846136da565b8181036080830152613767816136fc565b905095945050505050565b5f6060820190506137855f830186612f0f565b6137926020830185612f0f565b61379f6040830184612f0f565b949350505050565b7f4c656e64696e6720706f6f6c206e6f74207365740000000000000000000000005f82015250565b5f6137db6014836132ff565b91506137e6826137a7565b602082019050919050565b5f6020820190508181035f830152613808816137cf565b9050919050565b7f416d6f756e74206d7573742062652067726561746572207468616e207a65726f5f82015250565b5f6138436020836132ff565b915061384e8261380f565b602082019050919050565b5f6020820190508181035f83015261387081613837565b9050919050565b5f805f805f60a086880312156138905761388f612b7e565b5b5f61389d88828901613447565b95505060206138ae88828901613447565b94505060406138bf88828901613447565b93505060606138d088828901613447565b92505060806138e188828901613447565b9150509295509295909350565b7f426f72726f7720616d6f756e742065786365656473206c696d697400000000005f82015250565b5f613922601b836132ff565b915061392d826138ee565b602082019050919050565b5f6020820190508181035f83015261394f81613916565b9050919050565b7f416c7265616479206465706f73697465640000000000000000000000000000005f82015250565b5f61398a6011836132ff565b915061399582613956565b602082019050919050565b5f6020820190508181035f8301526139b78161397e565b9050919050565b7f4e6f7420746865206f776e6572000000000000000000000000000000000000005f82015250565b5f6139f2600d836132ff565b91506139fd826139be565b602082019050919050565b5f6020820190508181035f830152613a1f816139e6565b9050919050565b5f60208284031215613a3b57613a3a612b7e565b5b5f613a4884828501613447565b91505092915050565b7f496e73756666696369656e7420736861726573000000000000000000000000005f82015250565b5f613a856013836132ff565b9150613a9082613a51565b602082019050919050565b5f6020820190508181035f830152613ab281613a79565b9050919050565b7f496e73756666696369656e74204c4b546f6b656e2062616c616e6365000000005f82015250565b5f613aed601c836132ff565b9150613af882613ab9565b602082019050919050565b5f6020820190508181035f830152613b1a81613ae1565b905091905056fea26469706673582212206568646ee2ddaf469e69666ae2a5afa3917aafb7e797e1c2deb5ca5a39ed58c564736f6c63430008180033","linkReferences":{}},"methodIdentifiers":{"borrowFromLendingPool(address,uint256)":"540b64ee","depositERC1155(address,uint256)":"6ce38a06","depositERC721(address,uint256)":"d29a4bf6","depositToLendingPool(uint256)":"dbd85781","getLendingPoolAccountData()":"fb2de2c8","i_lkToken()":"c812221d","lendingPool()":"a59a9973","liquidate(uint256)":"415f1240","onERC1155BatchReceived(address,address,uint256[],uint256[],bytes)":"bc197c81","onERC1155Received(address,address,uint256,uint256,bytes)":"f23a6e61","onERC721Received(address,address,uint256,bytes)":"150b7a02","owner()":"8da5cb5b","redeem(uint256)":"db006a75","renounceOwnership()":"715018a6","repayToLendingPool(address,uint256)":"693ad6d3","setLendingPool(address)":"113aa8b1","supportsInterface(bytes4)":"01ffc9a7","tokenIdToVault(uint256)":"16ffc423","transferOwnership(address)":"f2fde38b","userBorrow(address)":"e12bc554","withdrawFromLendingPool(uint256)":"affc1d97"},"id":103}