{"abi":[{"type":"constructor","inputs":[{"name":"uri","type":"string","internalType":"string"},{"name":"ccipRouterAddress","type":"address","internalType":"address"},{"name":"linkTokenAddress","type":"address","internalType":"address"},{"name":"currentChainSelector","type":"uint64","internalType":"uint64"},{"name":"functionsRouterAddress","type":"address","internalType":"address"}],"stateMutability":"nonpayable"},{"type":"function","name":"acceptOwnership","inputs":[],"outputs":[],"stateMutability":"nonpayable"},{"type":"function","name":"balanceOf","inputs":[{"name":"account","type":"address","internalType":"address"},{"name":"id","type":"uint256","internalType":"uint256"}],"outputs":[{"name":"","type":"uint256","internalType":"uint256"}],"stateMutability":"view"},{"type":"function","name":"balanceOfBatch","inputs":[{"name":"accounts","type":"address[]","internalType":"address[]"},{"name":"ids","type":"uint256[]","internalType":"uint256[]"}],"outputs":[{"name":"","type":"uint256[]","internalType":"uint256[]"}],"stateMutability":"view"},{"type":"function","name":"burn","inputs":[{"name":"account","type":"address","internalType":"address"},{"name":"id","type":"uint256","internalType":"uint256"},{"name":"amount","type":"uint256","internalType":"uint256"}],"outputs":[],"stateMutability":"nonpayable"},{"type":"function","name":"burnBatch","inputs":[{"name":"account","type":"address","internalType":"address"},{"name":"ids","type":"uint256[]","internalType":"uint256[]"},{"name":"amounts","type":"uint256[]","internalType":"uint256[]"}],"outputs":[],"stateMutability":"nonpayable"},{"type":"function","name":"ccipReceive","inputs":[{"name":"message","type":"tuple","internalType":"struct Client.Any2EVMMessage","components":[{"name":"messageId","type":"bytes32","internalType":"bytes32"},{"name":"sourceChainSelector","type":"uint64","internalType":"uint64"},{"name":"sender","type":"bytes","internalType":"bytes"},{"name":"data","type":"bytes","internalType":"bytes"},{"name":"destTokenAmounts","type":"tuple[]","internalType":"struct Client.EVMTokenAmount[]","components":[{"name":"token","type":"address","internalType":"address"},{"name":"amount","type":"uint256","internalType":"uint256"}]}]}],"outputs":[],"stateMutability":"nonpayable"},{"type":"function","name":"crossChainTransferFrom","inputs":[{"name":"from","type":"address","internalType":"address"},{"name":"to","type":"address","internalType":"address"},{"name":"id","type":"uint256","internalType":"uint256"},{"name":"amount","type":"uint256","internalType":"uint256"},{"name":"data","type":"bytes","internalType":"bytes"},{"name":"destinationChainSelector","type":"uint64","internalType":"uint64"},{"name":"payFeesIn","type":"uint8","internalType":"enum CrossChainBurnAndMintERC1155.PayFeesIn"}],"outputs":[{"name":"messageId","type":"bytes32","internalType":"bytes32"}],"stateMutability":"nonpayable"},{"type":"function","name":"disableChain","inputs":[{"name":"chainSelector","type":"uint64","internalType":"uint64"}],"outputs":[],"stateMutability":"nonpayable"},{"type":"function","name":"enableChain","inputs":[{"name":"chainSelector","type":"uint64","internalType":"uint64"},{"name":"xNftAddress","type":"address","internalType":"address"},{"name":"ccipExtraArgs","type":"bytes","internalType":"bytes"}],"outputs":[],"stateMutability":"nonpayable"},{"type":"function","name":"exists","inputs":[{"name":"id","type":"uint256","internalType":"uint256"}],"outputs":[{"name":"","type":"bool","internalType":"bool"}],"stateMutability":"view"},{"type":"function","name":"isApprovedForAll","inputs":[{"name":"account","type":"address","internalType":"address"},{"name":"operator","type":"address","internalType":"address"}],"outputs":[{"name":"","type":"bool","internalType":"bool"}],"stateMutability":"view"},{"type":"function","name":"mint","inputs":[{"name":"_to","type":"address","internalType":"address"},{"name":"_id","type":"uint256","internalType":"uint256"},{"name":"_amount","type":"uint256","internalType":"uint256"},{"name":"_data","type":"bytes","internalType":"bytes"},{"name":"_tokenUri","type":"string","internalType":"string"}],"outputs":[],"stateMutability":"nonpayable"},{"type":"function","name":"mintBatch","inputs":[{"name":"_to","type":"address","internalType":"address"},{"name":"_ids","type":"uint256[]","internalType":"uint256[]"},{"name":"_amounts","type":"uint256[]","internalType":"uint256[]"},{"name":"_data","type":"bytes","internalType":"bytes"},{"name":"_tokenUris","type":"string[]","internalType":"string[]"}],"outputs":[],"stateMutability":"nonpayable"},{"type":"function","name":"owner","inputs":[],"outputs":[{"name":"","type":"address","internalType":"address"}],"stateMutability":"view"},{"type":"function","name":"s_chains","inputs":[{"name":"destChainSelector","type":"uint64","internalType":"uint64"}],"outputs":[{"name":"xNftAddress","type":"address","internalType":"address"},{"name":"ccipExtraArgsBytes","type":"bytes","internalType":"bytes"}],"stateMutability":"view"},{"type":"function","name":"safeBatchTransferFrom","inputs":[{"name":"from","type":"address","internalType":"address"},{"name":"to","type":"address","internalType":"address"},{"name":"ids","type":"uint256[]","internalType":"uint256[]"},{"name":"values","type":"uint256[]","internalType":"uint256[]"},{"name":"data","type":"bytes","internalType":"bytes"}],"outputs":[],"stateMutability":"nonpayable"},{"type":"function","name":"safeTransferFrom","inputs":[{"name":"from","type":"address","internalType":"address"},{"name":"to","type":"address","internalType":"address"},{"name":"id","type":"uint256","internalType":"uint256"},{"name":"value","type":"uint256","internalType":"uint256"},{"name":"data","type":"bytes","internalType":"bytes"}],"outputs":[],"stateMutability":"nonpayable"},{"type":"function","name":"setApprovalForAll","inputs":[{"name":"operator","type":"address","internalType":"address"},{"name":"approved","type":"bool","internalType":"bool"}],"outputs":[],"stateMutability":"nonpayable"},{"type":"function","name":"setIssuer","inputs":[{"name":"_issuer","type":"address","internalType":"address"}],"outputs":[],"stateMutability":"nonpayable"},{"type":"function","name":"supportsInterface","inputs":[{"name":"interfaceId","type":"bytes4","internalType":"bytes4"}],"outputs":[{"name":"","type":"bool","internalType":"bool"}],"stateMutability":"view"},{"type":"function","name":"totalSupply","inputs":[],"outputs":[{"name":"","type":"uint256","internalType":"uint256"}],"stateMutability":"view"},{"type":"function","name":"totalSupply","inputs":[{"name":"id","type":"uint256","internalType":"uint256"}],"outputs":[{"name":"","type":"uint256","internalType":"uint256"}],"stateMutability":"view"},{"type":"function","name":"transferOwnership","inputs":[{"name":"to","type":"address","internalType":"address"}],"outputs":[],"stateMutability":"nonpayable"},{"type":"function","name":"uri","inputs":[{"name":"tokenId","type":"uint256","internalType":"uint256"}],"outputs":[{"name":"","type":"string","internalType":"string"}],"stateMutability":"view"},{"type":"function","name":"withdraw","inputs":[{"name":"_beneficiary","type":"address","internalType":"address"}],"outputs":[],"stateMutability":"nonpayable"},{"type":"function","name":"withdrawToken","inputs":[{"name":"_beneficiary","type":"address","internalType":"address"},{"name":"_token","type":"address","internalType":"address"}],"outputs":[],"stateMutability":"nonpayable"},{"type":"event","name":"ApprovalForAll","inputs":[{"name":"account","type":"address","indexed":true,"internalType":"address"},{"name":"operator","type":"address","indexed":true,"internalType":"address"},{"name":"approved","type":"bool","indexed":false,"internalType":"bool"}],"anonymous":false},{"type":"event","name":"ChainDisabled","inputs":[{"name":"chainSelector","type":"uint64","indexed":false,"internalType":"uint64"}],"anonymous":false},{"type":"event","name":"ChainEnabled","inputs":[{"name":"chainSelector","type":"uint64","indexed":false,"internalType":"uint64"},{"name":"xNftAddress","type":"address","indexed":false,"internalType":"address"},{"name":"ccipExtraArgs","type":"bytes","indexed":false,"internalType":"bytes"}],"anonymous":false},{"type":"event","name":"CrossChainReceived","inputs":[{"name":"from","type":"address","indexed":false,"internalType":"address"},{"name":"to","type":"address","indexed":false,"internalType":"address"},{"name":"id","type":"uint256","indexed":false,"internalType":"uint256"},{"name":"amount","type":"uint256","indexed":false,"internalType":"uint256"},{"name":"data","type":"bytes","indexed":false,"internalType":"bytes"},{"name":"sourceChainSelector","type":"uint64","indexed":false,"internalType":"uint64"},{"name":"destinationChainSelector","type":"uint64","indexed":false,"internalType":"uint64"}],"anonymous":false},{"type":"event","name":"CrossChainSent","inputs":[{"name":"from","type":"address","indexed":false,"internalType":"address"},{"name":"to","type":"address","indexed":false,"internalType":"address"},{"name":"id","type":"uint256","indexed":false,"internalType":"uint256"},{"name":"amount","type":"uint256","indexed":false,"internalType":"uint256"},{"name":"data","type":"bytes","indexed":false,"internalType":"bytes"},{"name":"sourceChainSelector","type":"uint64","indexed":false,"internalType":"uint64"},{"name":"destinationChainSelector","type":"uint64","indexed":false,"internalType":"uint64"}],"anonymous":false},{"type":"event","name":"OwnershipTransferRequested","inputs":[{"name":"from","type":"address","indexed":true,"internalType":"address"},{"name":"to","type":"address","indexed":true,"internalType":"address"}],"anonymous":false},{"type":"event","name":"OwnershipTransferred","inputs":[{"name":"from","type":"address","indexed":true,"internalType":"address"},{"name":"to","type":"address","indexed":true,"internalType":"address"}],"anonymous":false},{"type":"event","name":"SetIssuer","inputs":[{"name":"issuer","type":"address","indexed":true,"internalType":"address"}],"anonymous":false},{"type":"event","name":"TransferBatch","inputs":[{"name":"operator","type":"address","indexed":true,"internalType":"address"},{"name":"from","type":"address","indexed":true,"internalType":"address"},{"name":"to","type":"address","indexed":true,"internalType":"address"},{"name":"ids","type":"uint256[]","indexed":false,"internalType":"uint256[]"},{"name":"values","type":"uint256[]","indexed":false,"internalType":"uint256[]"}],"anonymous":false},{"type":"event","name":"TransferSingle","inputs":[{"name":"operator","type":"address","indexed":true,"internalType":"address"},{"name":"from","type":"address","indexed":true,"internalType":"address"},{"name":"to","type":"address","indexed":true,"internalType":"address"},{"name":"id","type":"uint256","indexed":false,"internalType":"uint256"},{"name":"value","type":"uint256","indexed":false,"internalType":"uint256"}],"anonymous":false},{"type":"event","name":"URI","inputs":[{"name":"value","type":"string","indexed":false,"internalType":"string"},{"name":"id","type":"uint256","indexed":true,"internalType":"uint256"}],"anonymous":false},{"type":"error","name":"ChainNotEnabled","inputs":[{"name":"chainSelector","type":"uint64","internalType":"uint64"}]},{"type":"error","name":"ERC1155Core_CallerIsNotIssuerOrItself","inputs":[{"name":"msgSender","type":"address","internalType":"address"}]},{"type":"error","name":"ERC1155InsufficientBalance","inputs":[{"name":"sender","type":"address","internalType":"address"},{"name":"balance","type":"uint256","internalType":"uint256"},{"name":"needed","type":"uint256","internalType":"uint256"},{"name":"tokenId","type":"uint256","internalType":"uint256"}]},{"type":"error","name":"ERC1155InvalidApprover","inputs":[{"name":"approver","type":"address","internalType":"address"}]},{"type":"error","name":"ERC1155InvalidArrayLength","inputs":[{"name":"idsLength","type":"uint256","internalType":"uint256"},{"name":"valuesLength","type":"uint256","internalType":"uint256"}]},{"type":"error","name":"ERC1155InvalidOperator","inputs":[{"name":"operator","type":"address","internalType":"address"}]},{"type":"error","name":"ERC1155InvalidReceiver","inputs":[{"name":"receiver","type":"address","internalType":"address"}]},{"type":"error","name":"ERC1155InvalidSender","inputs":[{"name":"sender","type":"address","internalType":"address"}]},{"type":"error","name":"ERC1155MissingApprovalForAll","inputs":[{"name":"operator","type":"address","internalType":"address"},{"name":"owner","type":"address","internalType":"address"}]},{"type":"error","name":"FailedToWithdrawEth","inputs":[{"name":"owner","type":"address","internalType":"address"},{"name":"target","type":"address","internalType":"address"},{"name":"value","type":"uint256","internalType":"uint256"}]},{"type":"error","name":"InvalidRouter","inputs":[{"name":"router","type":"address","internalType":"address"}]},{"type":"error","name":"NotEnoughBalanceForFees","inputs":[{"name":"currentBalance","type":"uint256","internalType":"uint256"},{"name":"calculatedFees","type":"uint256","internalType":"uint256"}]},{"type":"error","name":"NothingToWithdraw","inputs":[]},{"type":"error","name":"OperationNotAllowedOnCurrentChain","inputs":[{"name":"chainSelector","type":"uint64","internalType":"uint64"}]},{"type":"error","name":"ReentrancyGuardReentrantCall","inputs":[]},{"type":"error","name":"SafeERC20FailedOperation","inputs":[{"name":"token","type":"address","internalType":"address"}]},{"type":"error","name":"SenderNotEnabled","inputs":[{"name":"sender","type":"address","internalType":"address"}]}],"bytecode":{"object":"0x60e060405234801562000010575f80fd5b5060405162005f7738038062005f77833981810160405281019062000036919062000553565b848484848333805f836200005081620001e760201b60201c565b505f73ffffffffffffffffffffffffffffffffffffffff168273ffffffffffffffffffffffffffffffffffffffff1603620000c2576040517f08c379a0000000000000000000000000000000000000000000000000000000008152600401620000b99062000654565b60405180910390fd5b8160055f6101000a81548173ffffffffffffffffffffffffffffffffffffffff021916908373ffffffffffffffffffffffffffffffffffffffff1602179055505f73ffffffffffffffffffffffffffffffffffffffff168173ffffffffffffffffffffffffffffffffffffffff161462000148576200014781620001fc60201b60201c565b5b505050506001600a819055508273ffffffffffffffffffffffffffffffffffffffff1660808173ffffffffffffffffffffffffffffffffffffffff16815250508173ffffffffffffffffffffffffffffffffffffffff1660a08173ffffffffffffffffffffffffffffffffffffffff16815250508067ffffffffffffffff1660c08167ffffffffffffffff1681525050505050505050505050620009fd565b8060029081620001f89190620008ab565b5050565b3373ffffffffffffffffffffffffffffffffffffffff168173ffffffffffffffffffffffffffffffffffffffff16036200026d576040517f08c379a00000000000000000000000000000000000000000000000000000000081526004016200026490620009dd565b60405180910390fd5b8060065f6101000a81548173ffffffffffffffffffffffffffffffffffffffff021916908373ffffffffffffffffffffffffffffffffffffffff1602179055508073ffffffffffffffffffffffffffffffffffffffff1660055f9054906101000a900473ffffffffffffffffffffffffffffffffffffffff1673ffffffffffffffffffffffffffffffffffffffff167fed8889f560326eb138920d842192f0eb3dd22b4f139c87a2c57538e05bae127860405160405180910390a350565b5f604051905090565b5f80fd5b5f80fd5b5f80fd5b5f80fd5b5f601f19601f8301169050919050565b7f4e487b71000000000000000000000000000000000000000000000000000000005f52604160045260245ffd5b6200038c8262000344565b810181811067ffffffffffffffff82111715620003ae57620003ad62000354565b5b80604052505050565b5f620003c26200032b565b9050620003d0828262000381565b919050565b5f67ffffffffffffffff821115620003f257620003f162000354565b5b620003fd8262000344565b9050602081019050919050565b5f5b83811015620004295780820151818401526020810190506200040c565b5f8484015250505050565b5f6200044a6200044484620003d5565b620003b7565b90508281526020810184848401111562000469576200046862000340565b5b620004768482856200040a565b509392505050565b5f82601f8301126200049557620004946200033c565b5b8151620004a784826020860162000434565b91505092915050565b5f73ffffffffffffffffffffffffffffffffffffffff82169050919050565b5f620004db82620004b0565b9050919050565b620004ed81620004cf565b8114620004f8575f80fd5b50565b5f815190506200050b81620004e2565b92915050565b5f67ffffffffffffffff82169050919050565b6200052f8162000511565b81146200053a575f80fd5b50565b5f815190506200054d8162000524565b92915050565b5f805f805f60a086880312156200056f576200056e62000334565b5b5f86015167ffffffffffffffff8111156200058f576200058e62000338565b5b6200059d888289016200047e565b9550506020620005b088828901620004fb565b9450506040620005c388828901620004fb565b9350506060620005d6888289016200053d565b9250506080620005e988828901620004fb565b9150509295509295909350565b5f82825260208201905092915050565b7f43616e6e6f7420736574206f776e657220746f207a65726f00000000000000005f82015250565b5f6200063c601883620005f6565b9150620006498262000606565b602082019050919050565b5f6020820190508181035f8301526200066d816200062e565b9050919050565b5f81519050919050565b7f4e487b71000000000000000000000000000000000000000000000000000000005f52602260045260245ffd5b5f6002820490506001821680620006c357607f821691505b602082108103620006d957620006d86200067e565b5b50919050565b5f819050815f5260205f209050919050565b5f6020601f8301049050919050565b5f82821b905092915050565b5f600883026200073d7fffffffffffffffffffffffffffffffffffffffffffffffffffffffffffffffff8262000700565b62000749868362000700565b95508019841693508086168417925050509392505050565b5f819050919050565b5f819050919050565b5f620007936200078d620007878462000761565b6200076a565b62000761565b9050919050565b5f819050919050565b620007ae8362000773565b620007c6620007bd826200079a565b8484546200070c565b825550505050565b5f90565b620007dc620007ce565b620007e9818484620007a3565b505050565b5b818110156200081057620008045f82620007d2565b600181019050620007ef565b5050565b601f8211156200085f576200082981620006df565b6200083484620006f1565b8101602085101562000844578190505b6200085c6200085385620006f1565b830182620007ee565b50505b505050565b5f82821c905092915050565b5f620008815f198460080262000864565b1980831691505092915050565b5f6200089b838362000870565b9150826002028217905092915050565b620008b68262000674565b67ffffffffffffffff811115620008d257620008d162000354565b5b620008de8254620006ab565b620008eb82828562000814565b5f60209050601f83116001811462000921575f84156200090c578287015190505b6200091885826200088e565b86555062000987565b601f1984166200093186620006df565b5f5b828110156200095a5784890151825560018201915060208501945060208101905062000933565b868310156200097a578489015162000976601f89168262000870565b8355505b6001600288020188555050505b505050505050565b7f43616e6e6f74207472616e7366657220746f2073656c660000000000000000005f82015250565b5f620009c5601783620005f6565b9150620009d2826200098f565b602082019050919050565b5f6020820190508181035f830152620009f681620009b7565b9050919050565b60805160a05160c05161550962000a6e5f395f81816105e701528181610fb3015281816111a30152611c3801525f8181610a1a01528181610bd301528181610c720152610d4801525f8181610b0c01528181610d8401528181610e0401528181610eed015261197801526155095ff3fe608060405234801561000f575f80fd5b506004361061018b575f3560e01c80635dc5ebdb116100dc578063b942f8cb11610095578063e985e9c51161006f578063e985e9c51461048a578063f242432a146104ba578063f2fde38b146104d6578063f5298aca146104f25761018b565b8063b942f8cb14610422578063bd85b0391461043e578063c1341c4f1461046e5761018b565b80635dc5ebdb146103755780636b20c454146103a657806379ba5097146103c257806385572ffb146103cc5780638da5cb5b146103e8578063a22cb465146104065761018b565b80632eb2c2d6116101495780634e1273f4116101235780634e1273f4146102dd5780634f558e791461030d57806351cff8d91461033d57806355cc4e57146103595761018b565b80632eb2c2d6146102895780633aeac4e1146102a557806341eade46146102c15761018b565b8062fdd58e1461018f57806301ffc9a7146101bf5780630ce639c4146101ef5780630e89341c1461020b57806318160ddd1461023b578063240b3b4914610259575b5f80fd5b6101a960048036038101906101a4919061380c565b61050e565b6040516101b69190613859565b60405180910390f35b6101d960048036038101906101d491906138c7565b610563565b6040516101e6919061390c565b60405180910390f35b61020960048036038101906102049190613a9e565b6105dc565b005b61022560048036038101906102209190613b0a565b61074b565b6040516102329190613baf565b60405180910390f35b610243610808565b6040516102509190613859565b60405180910390f35b610273600480360381019061026e9190613bf2565b610811565b6040516102809190613cc3565b60405180910390f35b6102a3600480360381019061029e9190613da0565b611005565b005b6102bf60048036038101906102ba9190613e6b565b6110ac565b005b6102db60048036038101906102d69190613ea9565b611198565b005b6102f760048036038101906102f29190613f94565b6112b0565b60405161030491906140c1565b60405180910390f35b61032760048036038101906103229190613b0a565b6113b7565b604051610334919061390c565b60405180910390f35b610357600480360381019061035291906140e1565b6113ca565b005b610373600480360381019061036e91906140e1565b6114c2565b005b61038f600480360381019061038a9190613ea9565b611550565b60405161039d92919061416d565b60405180910390f35b6103c060048036038101906103bb919061419b565b611615565b005b6103ca6117e5565b005b6103e660048036038101906103e19190614245565b611976565b005b6103f0611c87565b6040516103fd919061428c565b60405180910390f35b610420600480360381019061041b91906142cf565b611caf565b005b61043c60048036038101906104379190614489565b611cc5565b005b61045860048036038101906104539190613b0a565b611e69565b6040516104659190613859565b60405180910390f35b61048860048036038101906104839190614570565b611e83565b005b6104a4600480360381019061049f9190613e6b565b611fc2565b6040516104b1919061390c565b60405180910390f35b6104d460048036038101906104cf919061461f565b612050565b005b6104f060048036038101906104eb91906140e1565b6120f7565b005b61050c600480360381019061050791906146b2565b61210b565b005b5f805f8381526020019081526020015f205f8473ffffffffffffffffffffffffffffffffffffffff1673ffffffffffffffffffffffffffffffffffffffff1681526020019081526020015f2054905092915050565b5f7f85572ffb000000000000000000000000000000000000000000000000000000007bffffffffffffffffffffffffffffffffffffffffffffffffffffffff1916827bffffffffffffffffffffffffffffffffffffffffffffffffffffffff191614806105d557506105d4826122c4565b5b9050919050565b6105e46123a5565b827f000000000000000000000000000000000000000000000000000000000000000067ffffffffffffffff168167ffffffffffffffff160361065d57806040517f40d8e3a10000000000000000000000000000000000000000000000000000000081526004016106549190614711565b60405180910390fd5b60405180604001604052808473ffffffffffffffffffffffffffffffffffffffff16815260200183815250600b5f8667ffffffffffffffff1667ffffffffffffffff1681526020019081526020015f205f820151815f015f6101000a81548173ffffffffffffffffffffffffffffffffffffffff021916908373ffffffffffffffffffffffffffffffffffffffff16021790555060208201518160010190816107069190614924565b509050507f59cc0b49d3359ac35e3872e99199469b6a1025c9a945cd9b6a411bffe337272d84848460405161073d939291906149f3565b60405180910390a150505050565b60605f60085f8481526020019081526020015f20805461076a90614757565b80601f016020809104026020016040519081016040528092919081815260200182805461079690614757565b80156107e15780601f106107b8576101008083540402835291602001916107e1565b820191905f5260205f20905b8154815290600101906020018083116107c457829003601f168201915b505050505090505f8151116107fe576107f983612436565b610800565b805b915050919050565b5f600454905090565b5f61081a6124c8565b825f73ffffffffffffffffffffffffffffffffffffffff16600b5f8367ffffffffffffffff1667ffffffffffffffff1681526020019081526020015f205f015f9054906101000a900473ffffffffffffffffffffffffffffffffffffffff1673ffffffffffffffffffffffffffffffffffffffff16036108d157806040517f1c33fbee0000000000000000000000000000000000000000000000000000000081526004016108c89190614711565b60405180910390fd5b5f6108db8861074b565b90506108e88a898961210b565b5f6040518060a00160405280600b5f8967ffffffffffffffff1667ffffffffffffffff1681526020019081526020015f205f015f9054906101000a900473ffffffffffffffffffffffffffffffffffffffff1660405160200161094b919061428c565b60405160208183030381529060405281526020018c8c8c8c8c8860405160200161097a96959493929190614a2f565b60405160208183030381529060405281526020015f67ffffffffffffffff8111156109a8576109a761397a565b5b6040519080825280602002602001820160405280156109e157816020015b6109ce6136e8565b8152602001906001900390816109c65790505b5081526020016001808111156109fa576109f9614a9c565b5b876001811115610a0d57610a0c614a9c565b5b14610a18575f610a3a565b7f00000000000000000000000000000000000000000000000000000000000000005b73ffffffffffffffffffffffffffffffffffffffff168152602001600b5f8967ffffffffffffffff1667ffffffffffffffff1681526020019081526020015f206001018054610a8890614757565b80601f0160208091040260200160405190810160405280929190818152602001828054610ab490614757565b8015610aff5780601f10610ad657610100808354040283529160200191610aff565b820191905f5260205f20905b815481529060010190602001808311610ae257829003601f168201915b505050505081525090505f7f000000000000000000000000000000000000000000000000000000000000000073ffffffffffffffffffffffffffffffffffffffff166320487ded88846040518363ffffffff1660e01b8152600401610b65929190614c7d565b602060405180830381865afa158015610b80573d5f803e3d5ffd5b505050506040513d601f19601f82011682018060405250810190610ba49190614cbf565b9050600180811115610bb957610bb8614a9c565b5b866001811115610bcc57610bcb614a9c565b5b03610ea4577f000000000000000000000000000000000000000000000000000000000000000073ffffffffffffffffffffffffffffffffffffffff166370a08231306040518263ffffffff1660e01b8152600401610c2a919061428c565b602060405180830381865afa158015610c45573d5f803e3d5ffd5b505050506040513d601f19601f82011682018060405250810190610c699190614cbf565b811115610d46577f000000000000000000000000000000000000000000000000000000000000000073ffffffffffffffffffffffffffffffffffffffff166370a08231306040518263ffffffff1660e01b8152600401610cc9919061428c565b602060405180830381865afa158015610ce4573d5f803e3d5ffd5b505050506040513d601f19601f82011682018060405250810190610d089190614cbf565b816040517f28fdcaa1000000000000000000000000000000000000000000000000000000008152600401610d3d929190614cea565b60405180910390fd5b7f000000000000000000000000000000000000000000000000000000000000000073ffffffffffffffffffffffffffffffffffffffff1663095ea7b37f0000000000000000000000000000000000000000000000000000000000000000836040518363ffffffff1660e01b8152600401610dc1929190614d11565b6020604051808303815f875af1158015610ddd573d5f803e3d5ffd5b505050506040513d601f19601f82011682018060405250810190610e019190614d4c565b507f000000000000000000000000000000000000000000000000000000000000000073ffffffffffffffffffffffffffffffffffffffff166396f4e9f988846040518363ffffffff1660e01b8152600401610e5d929190614c7d565b6020604051808303815f875af1158015610e79573d5f803e3d5ffd5b505050506040513d601f19601f82011682018060405250810190610e9d9190614da1565b9450610f8b565b47811115610eeb5747816040517f28fdcaa1000000000000000000000000000000000000000000000000000000008152600401610ee2929190614cea565b60405180910390fd5b7f000000000000000000000000000000000000000000000000000000000000000073ffffffffffffffffffffffffffffffffffffffff166396f4e9f98289856040518463ffffffff1660e01b8152600401610f47929190614c7d565b60206040518083038185885af1158015610f63573d5f803e3d5ffd5b50505050506040513d601f19601f82011682018060405250810190610f889190614da1565b94505b7f300e6c20d2e9d8db9b2df40ebce943d9dae3fa3a8eaec841a3d1cb9a1e8b6ad78c8c8c8c8c7f00000000000000000000000000000000000000000000000000000000000000008d604051610fe69796959493929190614dcc565b60405180910390a150505050610ffa61250e565b979650505050505050565b5f61100e612518565b90508073ffffffffffffffffffffffffffffffffffffffff168673ffffffffffffffffffffffffffffffffffffffff161415801561105357506110518682611fc2565b155b156110975780866040517fe237d92200000000000000000000000000000000000000000000000000000000815260040161108e929190614e40565b60405180910390fd5b6110a4868686868661251f565b505050505050565b6110b46123a5565b5f8173ffffffffffffffffffffffffffffffffffffffff166370a08231306040518263ffffffff1660e01b81526004016110ee919061428c565b602060405180830381865afa158015611109573d5f803e3d5ffd5b505050506040513d601f19601f8201168201806040525081019061112d9190614cbf565b90505f8103611168576040517fd0d04f6000000000000000000000000000000000000000000000000000000000815260040160405180910390fd5b61119383828473ffffffffffffffffffffffffffffffffffffffff166126139092919063ffffffff16565b505050565b6111a06123a5565b807f000000000000000000000000000000000000000000000000000000000000000067ffffffffffffffff168167ffffffffffffffff160361121957806040517f40d8e3a10000000000000000000000000000000000000000000000000000000081526004016112109190614711565b60405180910390fd5b600b5f8367ffffffffffffffff1667ffffffffffffffff1681526020019081526020015f205f8082015f6101000a81549073ffffffffffffffffffffffffffffffffffffffff0219169055600182015f6112739190613716565b50507f67e02000179a6045f4db8fb1b09f01e170b0347e0b698fc5112ce4d798ef19f6826040516112a49190614711565b60405180910390a15050565b606081518351146112fc57815183516040517f5b0599910000000000000000000000000000000000000000000000000000000081526004016112f3929190614cea565b60405180910390fd5b5f835167ffffffffffffffff8111156113185761131761397a565b5b6040519080825280602002602001820160405280156113465781602001602082028036833780820191505090505b5090505f5b84518110156113ac5761138261136a828761269290919063ffffffff16565b61137d83876126a590919063ffffffff16565b61050e565b82828151811061139557611394614e67565b5b60200260200101818152505080600101905061134b565b508091505092915050565b5f806113c283611e69565b119050919050565b6113d26123a5565b5f4790505f810361140f576040517fd0d04f6000000000000000000000000000000000000000000000000000000000815260040160405180910390fd5b5f8273ffffffffffffffffffffffffffffffffffffffff168260405161143490614ec1565b5f6040518083038185875af1925050503d805f811461146e576040519150601f19603f3d011682016040523d82523d5f602084013e611473565b606091505b50509050806114bd573383836040517f9d11f5630000000000000000000000000000000000000000000000000000000081526004016114b493929190614ed5565b60405180910390fd5b505050565b6114ca6123a5565b8060075f6101000a81548173ffffffffffffffffffffffffffffffffffffffff021916908373ffffffffffffffffffffffffffffffffffffffff1602179055508073ffffffffffffffffffffffffffffffffffffffff167fd56ed7b1c1110348b1fbf418469f6fc4acc32d9b675e9e1e448cc19169a64ca060405160405180910390a250565b600b602052805f5260405f205f91509050805f015f9054906101000a900473ffffffffffffffffffffffffffffffffffffffff169080600101805461159490614757565b80601f01602080910402602001604051908101604052809291908181526020018280546115c090614757565b801561160b5780601f106115e25761010080835404028352916020019161160b565b820191905f5260205f20905b8154815290600101906020018083116115ee57829003601f168201915b5050505050905082565b3073ffffffffffffffffffffffffffffffffffffffff163373ffffffffffffffffffffffffffffffffffffffff161415801561169e575060075f9054906101000a900473ffffffffffffffffffffffffffffffffffffffff1673ffffffffffffffffffffffffffffffffffffffff163373ffffffffffffffffffffffffffffffffffffffff1614155b156116e057336040517fee4a26f20000000000000000000000000000000000000000000000000000000081526004016116d7919061428c565b60405180910390fd5b6116e8612518565b73ffffffffffffffffffffffffffffffffffffffff168373ffffffffffffffffffffffffffffffffffffffff1614158015611731575061172f8361172a612518565b611fc2565b155b1561177c5761173e612518565b836040517fe237d922000000000000000000000000000000000000000000000000000000008152600401611773929190614e40565b60405180910390fd5b6117878383836126b8565b5f5b82518110156117df575f60095f8673ffffffffffffffffffffffffffffffffffffffff1673ffffffffffffffffffffffffffffffffffffffff1681526020019081526020015f2081905550806001019050611789565b50505050565b60065f9054906101000a900473ffffffffffffffffffffffffffffffffffffffff1673ffffffffffffffffffffffffffffffffffffffff163373ffffffffffffffffffffffffffffffffffffffff1614611874576040517f08c379a000000000000000000000000000000000000000000000000000000000815260040161186b90614f54565b60405180910390fd5b5f60055f9054906101000a900473ffffffffffffffffffffffffffffffffffffffff1690503360055f6101000a81548173ffffffffffffffffffffffffffffffffffffffff021916908373ffffffffffffffffffffffffffffffffffffffff1602179055505f60065f6101000a81548173ffffffffffffffffffffffffffffffffffffffff021916908373ffffffffffffffffffffffffffffffffffffffff1602179055503373ffffffffffffffffffffffffffffffffffffffff168173ffffffffffffffffffffffffffffffffffffffff167f8be0079c531659141344cd1fd0a4f28419497f9722a3daafe3b4186f6b6457e060405160405180910390a350565b7f000000000000000000000000000000000000000000000000000000000000000073ffffffffffffffffffffffffffffffffffffffff163373ffffffffffffffffffffffffffffffffffffffff1614611a0657336040517fd7f733340000000000000000000000000000000000000000000000000000000081526004016119fd919061428c565b60405180910390fd5b611a0e6124c8565b806020016020810190611a219190613ea9565b5f73ffffffffffffffffffffffffffffffffffffffff16600b5f8367ffffffffffffffff1667ffffffffffffffff1681526020019081526020015f205f015f9054906101000a900473ffffffffffffffffffffffffffffffffffffffff1673ffffffffffffffffffffffffffffffffffffffff1603611ad757806040517f1c33fbee000000000000000000000000000000000000000000000000000000008152600401611ace9190614711565b60405180910390fd5b816020016020810190611aea9190613ea9565b828060400190611afa9190614f7e565b810190611b07919061501b565b8073ffffffffffffffffffffffffffffffffffffffff16600b5f8467ffffffffffffffff1667ffffffffffffffff1681526020019081526020015f205f015f9054906101000a900473ffffffffffffffffffffffffffffffffffffffff1673ffffffffffffffffffffffffffffffffffffffff1614611bbd57806040517fbaf46cd1000000000000000000000000000000000000000000000000000000008152600401611bb4919061428c565b60405180910390fd5b5f846020016020810190611bd19190613ea9565b90505f805f805f808a8060600190611be99190614f7e565b810190611bf69190615046565b955095509550955095509550611c0f8585858585611e83565b7f8a69e2b5fbcc69a1f5d6326fb26db5bc43cd18d09d2e79a48a50b77da16432f986868686868c7f0000000000000000000000000000000000000000000000000000000000000000604051611c6a9796959493929190614dcc565b60405180910390a150505050505050505050611c8461250e565b50565b5f60055f9054906101000a900473ffffffffffffffffffffffffffffffffffffffff16905090565b611cc1611cba612518565b8383612748565b5050565b3073ffffffffffffffffffffffffffffffffffffffff163373ffffffffffffffffffffffffffffffffffffffff1614158015611d4e575060075f9054906101000a900473ffffffffffffffffffffffffffffffffffffffff1673ffffffffffffffffffffffffffffffffffffffff163373ffffffffffffffffffffffffffffffffffffffff1614155b15611d9057336040517fee4a26f2000000000000000000000000000000000000000000000000000000008152600401611d87919061428c565b60405180910390fd5b611d9c858585856128b1565b5f5b8451811015611e6157818181518110611dba57611db9614e67565b5b602002602001015160085f878481518110611dd857611dd7614e67565b5b602002602001015181526020019081526020015f209081611df9919061515f565b50848181518110611e0d57611e0c614e67565b5b602002602001015160095f8873ffffffffffffffffffffffffffffffffffffffff1673ffffffffffffffffffffffffffffffffffffffff1681526020019081526020015f2081905550806001019050611d9e565b505050505050565b5f60035f8381526020019081526020015f20549050919050565b3073ffffffffffffffffffffffffffffffffffffffff163373ffffffffffffffffffffffffffffffffffffffff1614158015611f0c575060075f9054906101000a900473ffffffffffffffffffffffffffffffffffffffff1673ffffffffffffffffffffffffffffffffffffffff163373ffffffffffffffffffffffffffffffffffffffff1614155b15611f4e57336040517fee4a26f2000000000000000000000000000000000000000000000000000000008152600401611f45919061428c565b60405180910390fd5b611f5a85858585612934565b8060085f8681526020019081526020015f209081611f78919061515f565b508360095f8773ffffffffffffffffffffffffffffffffffffffff1673ffffffffffffffffffffffffffffffffffffffff1681526020019081526020015f20819055505050505050565b5f60015f8473ffffffffffffffffffffffffffffffffffffffff1673ffffffffffffffffffffffffffffffffffffffff1681526020019081526020015f205f8373ffffffffffffffffffffffffffffffffffffffff1673ffffffffffffffffffffffffffffffffffffffff1681526020019081526020015f205f9054906101000a900460ff16905092915050565b5f612059612518565b90508073ffffffffffffffffffffffffffffffffffffffff168673ffffffffffffffffffffffffffffffffffffffff161415801561209e575061209c8682611fc2565b155b156120e25780866040517fe237d9220000000000000000000000000000000000000000000000000000000081526004016120d9929190614e40565b60405180910390fd5b6120ef86868686866129c9565b505050505050565b6120ff6123a5565b61210881612acf565b50565b3073ffffffffffffffffffffffffffffffffffffffff163373ffffffffffffffffffffffffffffffffffffffff1614158015612194575060075f9054906101000a900473ffffffffffffffffffffffffffffffffffffffff1673ffffffffffffffffffffffffffffffffffffffff163373ffffffffffffffffffffffffffffffffffffffff1614155b156121d657336040517fee4a26f20000000000000000000000000000000000000000000000000000000081526004016121cd919061428c565b60405180910390fd5b6121de612518565b73ffffffffffffffffffffffffffffffffffffffff168373ffffffffffffffffffffffffffffffffffffffff1614158015612227575061222583612220612518565b611fc2565b155b1561227257612234612518565b836040517fe237d922000000000000000000000000000000000000000000000000000000008152600401612269929190614e40565b60405180910390fd5b61227d838383612bfb565b5f60095f8573ffffffffffffffffffffffffffffffffffffffff1673ffffffffffffffffffffffffffffffffffffffff1681526020019081526020015f2081905550505050565b5f7fd9b67a26000000000000000000000000000000000000000000000000000000007bffffffffffffffffffffffffffffffffffffffffffffffffffffffff1916827bffffffffffffffffffffffffffffffffffffffffffffffffffffffff1916148061238e57507f0e89341c000000000000000000000000000000000000000000000000000000007bffffffffffffffffffffffffffffffffffffffffffffffffffffffff1916827bffffffffffffffffffffffffffffffffffffffffffffffffffffffff1916145b8061239e575061239d82612c9d565b5b9050919050565b60055f9054906101000a900473ffffffffffffffffffffffffffffffffffffffff1673ffffffffffffffffffffffffffffffffffffffff163373ffffffffffffffffffffffffffffffffffffffff1614612434576040517f08c379a000000000000000000000000000000000000000000000000000000000815260040161242b90615278565b60405180910390fd5b565b60606002805461244590614757565b80601f016020809104026020016040519081016040528092919081815260200182805461247190614757565b80156124bc5780601f10612493576101008083540402835291602001916124bc565b820191905f5260205f20905b81548152906001019060200180831161249f57829003601f168201915b50505050509050919050565b6002600a5403612504576040517f3ee5aeb500000000000000000000000000000000000000000000000000000000815260040160405180910390fd5b6002600a81905550565b6001600a81905550565b5f33905090565b5f73ffffffffffffffffffffffffffffffffffffffff168473ffffffffffffffffffffffffffffffffffffffff160361258f575f6040517f57f447ce000000000000000000000000000000000000000000000000000000008152600401612586919061428c565b60405180910390fd5b5f73ffffffffffffffffffffffffffffffffffffffff168573ffffffffffffffffffffffffffffffffffffffff16036125ff575f6040517f01a835140000000000000000000000000000000000000000000000000000000081526004016125f6919061428c565b60405180910390fd5b61260c8585858585612d06565b5050505050565b61268d838473ffffffffffffffffffffffffffffffffffffffff1663a9059cbb8585604051602401612646929190614d11565b604051602081830303815290604052915060e01b6020820180517bffffffffffffffffffffffffffffffffffffffffffffffffffffffff8381831617835250505050612db2565b505050565b5f60208202602084010151905092915050565b5f60208202602084010151905092915050565b5f73ffffffffffffffffffffffffffffffffffffffff168373ffffffffffffffffffffffffffffffffffffffff1603612728575f6040517f01a8351400000000000000000000000000000000000000000000000000000000815260040161271f919061428c565b60405180910390fd5b612743835f848460405180602001604052805f815250612d06565b505050565b5f73ffffffffffffffffffffffffffffffffffffffff168273ffffffffffffffffffffffffffffffffffffffff16036127b8575f6040517fced3e1000000000000000000000000000000000000000000000000000000000081526004016127af919061428c565b60405180910390fd5b8060015f8573ffffffffffffffffffffffffffffffffffffffff1673ffffffffffffffffffffffffffffffffffffffff1681526020019081526020015f205f8473ffffffffffffffffffffffffffffffffffffffff1673ffffffffffffffffffffffffffffffffffffffff1681526020019081526020015f205f6101000a81548160ff0219169083151502179055508173ffffffffffffffffffffffffffffffffffffffff168373ffffffffffffffffffffffffffffffffffffffff167f17307eab39ab6107e8899845ad3d59bd9653f200f220920489ca2b5937696c31836040516128a4919061390c565b60405180910390a3505050565b5f73ffffffffffffffffffffffffffffffffffffffff168473ffffffffffffffffffffffffffffffffffffffff1603612921575f6040517f57f447ce000000000000000000000000000000000000000000000000000000008152600401612918919061428c565b60405180910390fd5b61292e5f85858585612d06565b50505050565b5f73ffffffffffffffffffffffffffffffffffffffff168473ffffffffffffffffffffffffffffffffffffffff16036129a4575f6040517f57f447ce00000000000000000000000000000000000000000000000000000000815260040161299b919061428c565b60405180910390fd5b5f806129b08585612e4d565b915091506129c15f87848487612d06565b505050505050565b5f73ffffffffffffffffffffffffffffffffffffffff168473ffffffffffffffffffffffffffffffffffffffff1603612a39575f6040517f57f447ce000000000000000000000000000000000000000000000000000000008152600401612a30919061428c565b60405180910390fd5b5f73ffffffffffffffffffffffffffffffffffffffff168573ffffffffffffffffffffffffffffffffffffffff1603612aa9575f6040517f01a83514000000000000000000000000000000000000000000000000000000008152600401612aa0919061428c565b60405180910390fd5b5f80612ab58585612e4d565b91509150612ac68787848487612d06565b50505050505050565b3373ffffffffffffffffffffffffffffffffffffffff168173ffffffffffffffffffffffffffffffffffffffff1603612b3d576040517f08c379a0000000000000000000000000000000000000000000000000000000008152600401612b34906152e0565b60405180910390fd5b8060065f6101000a81548173ffffffffffffffffffffffffffffffffffffffff021916908373ffffffffffffffffffffffffffffffffffffffff1602179055508073ffffffffffffffffffffffffffffffffffffffff1660055f9054906101000a900473ffffffffffffffffffffffffffffffffffffffff1673ffffffffffffffffffffffffffffffffffffffff167fed8889f560326eb138920d842192f0eb3dd22b4f139c87a2c57538e05bae127860405160405180910390a350565b5f73ffffffffffffffffffffffffffffffffffffffff168373ffffffffffffffffffffffffffffffffffffffff1603612c6b575f6040517f01a83514000000000000000000000000000000000000000000000000000000008152600401612c62919061428c565b60405180910390fd5b5f80612c778484612e4d565b91509150612c96855f848460405180602001604052805f815250612d06565b5050505050565b5f7f01ffc9a7000000000000000000000000000000000000000000000000000000007bffffffffffffffffffffffffffffffffffffffffffffffffffffffff1916827bffffffffffffffffffffffffffffffffffffffffffffffffffffffff1916149050919050565b612d1285858585612e7d565b5f73ffffffffffffffffffffffffffffffffffffffff168473ffffffffffffffffffffffffffffffffffffffff1614612dab575f612d4e612518565b90506001845103612d9a575f612d6d5f866126a590919063ffffffff16565b90505f612d835f866126a590919063ffffffff16565b9050612d93838989858589612ffa565b5050612da9565b612da88187878787876131a9565b5b505b5050505050565b5f8060205f8451602086015f885af180612dd1576040513d5f823e3d81fd5b3d92505f519150505f8214612dea576001811415612e05565b5f8473ffffffffffffffffffffffffffffffffffffffff163b145b15612e4757836040517f5274afe7000000000000000000000000000000000000000000000000000000008152600401612e3e919061428c565b60405180910390fd5b50505050565b60608060405191506001825283602083015260408201905060018152826020820152604081016040529250929050565b612e8984848484613358565b5f73ffffffffffffffffffffffffffffffffffffffff168473ffffffffffffffffffffffffffffffffffffffff1603612f4c575f805b8351811015612f31575f612edc82856126a590919063ffffffff16565b90508060035f612ef585896126a590919063ffffffff16565b81526020019081526020015f205f828254612f10919061532b565b925050819055508083612f23919061532b565b925050806001019050612ebf565b508060045f828254612f43919061532b565b92505081905550505b5f73ffffffffffffffffffffffffffffffffffffffff168373ffffffffffffffffffffffffffffffffffffffff1603612ff4575f805b8351811015612fe2575f612f9f82856126a590919063ffffffff16565b90508060035f612fb885896126a590919063ffffffff16565b81526020019081526020015f205f8282540392505081905550808301925050806001019050612f82565b508060045f8282540392505081905550505b50505050565b5f8473ffffffffffffffffffffffffffffffffffffffff163b11156131a1578373ffffffffffffffffffffffffffffffffffffffff1663f23a6e6187878686866040518663ffffffff1660e01b815260040161305a95949392919061535e565b6020604051808303815f875af192505050801561309557506040513d601f19601f8201168201806040525081019061309291906153ca565b60015b613116573d805f81146130c3576040519150601f19603f3d011682016040523d82523d5f602084013e6130c8565b606091505b505f81510361310e57846040517f57f447ce000000000000000000000000000000000000000000000000000000008152600401613105919061428c565b60405180910390fd5b805181602001fd5b63f23a6e6160e01b7bffffffffffffffffffffffffffffffffffffffffffffffffffffffff1916817bffffffffffffffffffffffffffffffffffffffffffffffffffffffff19161461319f57846040517f57f447ce000000000000000000000000000000000000000000000000000000008152600401613196919061428c565b60405180910390fd5b505b505050505050565b5f8473ffffffffffffffffffffffffffffffffffffffff163b1115613350578373ffffffffffffffffffffffffffffffffffffffff1663bc197c8187878686866040518663ffffffff1660e01b81526004016132099594939291906153f5565b6020604051808303815f875af192505050801561324457506040513d601f19601f8201168201806040525081019061324191906153ca565b60015b6132c5573d805f8114613272576040519150601f19603f3d011682016040523d82523d5f602084013e613277565b606091505b505f8151036132bd57846040517f57f447ce0000000000000000000000000000000000000000000000000000000081526004016132b4919061428c565b60405180910390fd5b805181602001fd5b63bc197c8160e01b7bffffffffffffffffffffffffffffffffffffffffffffffffffffffff1916817bffffffffffffffffffffffffffffffffffffffffffffffffffffffff19161461334e57846040517f57f447ce000000000000000000000000000000000000000000000000000000008152600401613345919061428c565b60405180910390fd5b505b505050505050565b80518251146133a257815181516040517f5b059991000000000000000000000000000000000000000000000000000000008152600401613399929190614cea565b60405180910390fd5b5f6133ab612518565b90505f5b83518110156135a7575f6133cc82866126a590919063ffffffff16565b90505f6133e283866126a590919063ffffffff16565b90505f73ffffffffffffffffffffffffffffffffffffffff168873ffffffffffffffffffffffffffffffffffffffff1614613505575f805f8481526020019081526020015f205f8a73ffffffffffffffffffffffffffffffffffffffff1673ffffffffffffffffffffffffffffffffffffffff1681526020019081526020015f20549050818110156134b157888183856040517f03dee4c50000000000000000000000000000000000000000000000000000000081526004016134a8949392919061545b565b60405180910390fd5b8181035f808581526020019081526020015f205f8b73ffffffffffffffffffffffffffffffffffffffff1673ffffffffffffffffffffffffffffffffffffffff1681526020019081526020015f2081905550505b5f73ffffffffffffffffffffffffffffffffffffffff168773ffffffffffffffffffffffffffffffffffffffff161461359a57805f808481526020019081526020015f205f8973ffffffffffffffffffffffffffffffffffffffff1673ffffffffffffffffffffffffffffffffffffffff1681526020019081526020015f205f828254613592919061532b565b925050819055505b50508060010190506133af565b506001835103613662575f6135c55f856126a590919063ffffffff16565b90505f6135db5f856126a590919063ffffffff16565b90508573ffffffffffffffffffffffffffffffffffffffff168773ffffffffffffffffffffffffffffffffffffffff168473ffffffffffffffffffffffffffffffffffffffff167fc3d58168c5ae7397731d063d5bbf3d657854427343f4c083240f7aacaa2d0f628585604051613653929190614cea565b60405180910390a450506136e1565b8373ffffffffffffffffffffffffffffffffffffffff168573ffffffffffffffffffffffffffffffffffffffff168273ffffffffffffffffffffffffffffffffffffffff167f4a39dc06d4c0dbc64b70af90fd698a233a518aa5d07e595d983b8c0526c8f7fb86866040516136d892919061549e565b60405180910390a45b5050505050565b60405180604001604052805f73ffffffffffffffffffffffffffffffffffffffff1681526020015f81525090565b50805461372290614757565b5f825580601f106137335750613750565b601f0160209004905f5260205f209081019061374f9190613753565b5b50565b5b8082111561376a575f815f905550600101613754565b5090565b5f604051905090565b5f80fd5b5f80fd5b5f73ffffffffffffffffffffffffffffffffffffffff82169050919050565b5f6137a88261377f565b9050919050565b6137b88161379e565b81146137c2575f80fd5b50565b5f813590506137d3816137af565b92915050565b5f819050919050565b6137eb816137d9565b81146137f5575f80fd5b50565b5f81359050613806816137e2565b92915050565b5f806040838503121561382257613821613777565b5b5f61382f858286016137c5565b9250506020613840858286016137f8565b9150509250929050565b613853816137d9565b82525050565b5f60208201905061386c5f83018461384a565b92915050565b5f7fffffffff0000000000000000000000000000000000000000000000000000000082169050919050565b6138a681613872565b81146138b0575f80fd5b50565b5f813590506138c18161389d565b92915050565b5f602082840312156138dc576138db613777565b5b5f6138e9848285016138b3565b91505092915050565b5f8115159050919050565b613906816138f2565b82525050565b5f60208201905061391f5f8301846138fd565b92915050565b5f67ffffffffffffffff82169050919050565b61394181613925565b811461394b575f80fd5b50565b5f8135905061395c81613938565b92915050565b5f80fd5b5f80fd5b5f601f19601f8301169050919050565b7f4e487b71000000000000000000000000000000000000000000000000000000005f52604160045260245ffd5b6139b08261396a565b810181811067ffffffffffffffff821117156139cf576139ce61397a565b5b80604052505050565b5f6139e161376e565b90506139ed82826139a7565b919050565b5f67ffffffffffffffff821115613a0c57613a0b61397a565b5b613a158261396a565b9050602081019050919050565b828183375f83830152505050565b5f613a42613a3d846139f2565b6139d8565b905082815260208101848484011115613a5e57613a5d613966565b5b613a69848285613a22565b509392505050565b5f82601f830112613a8557613a84613962565b5b8135613a95848260208601613a30565b91505092915050565b5f805f60608486031215613ab557613ab4613777565b5b5f613ac28682870161394e565b9350506020613ad3868287016137c5565b925050604084013567ffffffffffffffff811115613af457613af361377b565b5b613b0086828701613a71565b9150509250925092565b5f60208284031215613b1f57613b1e613777565b5b5f613b2c848285016137f8565b91505092915050565b5f81519050919050565b5f82825260208201905092915050565b5f5b83811015613b6c578082015181840152602081019050613b51565b5f8484015250505050565b5f613b8182613b35565b613b8b8185613b3f565b9350613b9b818560208601613b4f565b613ba48161396a565b840191505092915050565b5f6020820190508181035f830152613bc78184613b77565b905092915050565b60028110613bdb575f80fd5b50565b5f81359050613bec81613bcf565b92915050565b5f805f805f805f60e0888a031215613c0d57613c0c613777565b5b5f613c1a8a828b016137c5565b9750506020613c2b8a828b016137c5565b9650506040613c3c8a828b016137f8565b9550506060613c4d8a828b016137f8565b945050608088013567ffffffffffffffff811115613c6e57613c6d61377b565b5b613c7a8a828b01613a71565b93505060a0613c8b8a828b0161394e565b92505060c0613c9c8a828b01613bde565b91505092959891949750929550565b5f819050919050565b613cbd81613cab565b82525050565b5f602082019050613cd65f830184613cb4565b92915050565b5f67ffffffffffffffff821115613cf657613cf561397a565b5b602082029050602081019050919050565b5f80fd5b5f613d1d613d1884613cdc565b6139d8565b90508083825260208201905060208402830185811115613d4057613d3f613d07565b5b835b81811015613d695780613d5588826137f8565b845260208401935050602081019050613d42565b5050509392505050565b5f82601f830112613d8757613d86613962565b5b8135613d97848260208601613d0b565b91505092915050565b5f805f805f60a08688031215613db957613db8613777565b5b5f613dc6888289016137c5565b9550506020613dd7888289016137c5565b945050604086013567ffffffffffffffff811115613df857613df761377b565b5b613e0488828901613d73565b935050606086013567ffffffffffffffff811115613e2557613e2461377b565b5b613e3188828901613d73565b925050608086013567ffffffffffffffff811115613e5257613e5161377b565b5b613e5e88828901613a71565b9150509295509295909350565b5f8060408385031215613e8157613e80613777565b5b5f613e8e858286016137c5565b9250506020613e9f858286016137c5565b9150509250929050565b5f60208284031215613ebe57613ebd613777565b5b5f613ecb8482850161394e565b91505092915050565b5f67ffffffffffffffff821115613eee57613eed61397a565b5b602082029050602081019050919050565b5f613f11613f0c84613ed4565b6139d8565b90508083825260208201905060208402830185811115613f3457613f33613d07565b5b835b81811015613f5d5780613f4988826137c5565b845260208401935050602081019050613f36565b5050509392505050565b5f82601f830112613f7b57613f7a613962565b5b8135613f8b848260208601613eff565b91505092915050565b5f8060408385031215613faa57613fa9613777565b5b5f83013567ffffffffffffffff811115613fc757613fc661377b565b5b613fd385828601613f67565b925050602083013567ffffffffffffffff811115613ff457613ff361377b565b5b61400085828601613d73565b9150509250929050565b5f81519050919050565b5f82825260208201905092915050565b5f819050602082019050919050565b61403c816137d9565b82525050565b5f61404d8383614033565b60208301905092915050565b5f602082019050919050565b5f61406f8261400a565b6140798185614014565b935061408483614024565b805f5b838110156140b457815161409b8882614042565b97506140a683614059565b925050600181019050614087565b5085935050505092915050565b5f6020820190508181035f8301526140d98184614065565b905092915050565b5f602082840312156140f6576140f5613777565b5b5f614103848285016137c5565b91505092915050565b6141158161379e565b82525050565b5f81519050919050565b5f82825260208201905092915050565b5f61413f8261411b565b6141498185614125565b9350614159818560208601613b4f565b6141628161396a565b840191505092915050565b5f6040820190506141805f83018561410c565b81810360208301526141928184614135565b90509392505050565b5f805f606084860312156141b2576141b1613777565b5b5f6141bf868287016137c5565b935050602084013567ffffffffffffffff8111156141e0576141df61377b565b5b6141ec86828701613d73565b925050604084013567ffffffffffffffff81111561420d5761420c61377b565b5b61421986828701613d73565b9150509250925092565b5f80fd5b5f60a0828403121561423c5761423b614223565b5b81905092915050565b5f6020828403121561425a57614259613777565b5b5f82013567ffffffffffffffff8111156142775761427661377b565b5b61428384828501614227565b91505092915050565b5f60208201905061429f5f83018461410c565b92915050565b6142ae816138f2565b81146142b8575f80fd5b50565b5f813590506142c9816142a5565b92915050565b5f80604083850312156142e5576142e4613777565b5b5f6142f2858286016137c5565b9250506020614303858286016142bb565b9150509250929050565b5f67ffffffffffffffff8211156143275761432661397a565b5b602082029050602081019050919050565b5f67ffffffffffffffff8211156143525761435161397a565b5b61435b8261396a565b9050602081019050919050565b5f61437a61437584614338565b6139d8565b90508281526020810184848401111561439657614395613966565b5b6143a1848285613a22565b509392505050565b5f82601f8301126143bd576143bc613962565b5b81356143cd848260208601614368565b91505092915050565b5f6143e86143e38461430d565b6139d8565b9050808382526020820190506020840283018581111561440b5761440a613d07565b5b835b8181101561445257803567ffffffffffffffff8111156144305761442f613962565b5b80860161443d89826143a9565b8552602085019450505060208101905061440d565b5050509392505050565b5f82601f8301126144705761446f613962565b5b81356144808482602086016143d6565b91505092915050565b5f805f805f60a086880312156144a2576144a1613777565b5b5f6144af888289016137c5565b955050602086013567ffffffffffffffff8111156144d0576144cf61377b565b5b6144dc88828901613d73565b945050604086013567ffffffffffffffff8111156144fd576144fc61377b565b5b61450988828901613d73565b935050606086013567ffffffffffffffff81111561452a5761452961377b565b5b61453688828901613a71565b925050608086013567ffffffffffffffff8111156145575761455661377b565b5b6145638882890161445c565b9150509295509295909350565b5f805f805f60a0868803121561458957614588613777565b5b5f614596888289016137c5565b95505060206145a7888289016137f8565b94505060406145b8888289016137f8565b935050606086013567ffffffffffffffff8111156145d9576145d861377b565b5b6145e588828901613a71565b925050608086013567ffffffffffffffff8111156146065761460561377b565b5b614612888289016143a9565b9150509295509295909350565b5f805f805f60a0868803121561463857614637613777565b5b5f614645888289016137c5565b9550506020614656888289016137c5565b9450506040614667888289016137f8565b9350506060614678888289016137f8565b925050608086013567ffffffffffffffff8111156146995761469861377b565b5b6146a588828901613a71565b9150509295509295909350565b5f805f606084860312156146c9576146c8613777565b5b5f6146d6868287016137c5565b93505060206146e7868287016137f8565b92505060406146f8868287016137f8565b9150509250925092565b61470b81613925565b82525050565b5f6020820190506147245f830184614702565b92915050565b7f4e487b71000000000000000000000000000000000000000000000000000000005f52602260045260245ffd5b5f600282049050600182168061476e57607f821691505b6020821081036147815761478061472a565b5b50919050565b5f819050815f5260205f209050919050565b5f6020601f8301049050919050565b5f82821b905092915050565b5f600883026147e37fffffffffffffffffffffffffffffffffffffffffffffffffffffffffffffffff826147a8565b6147ed86836147a8565b95508019841693508086168417925050509392505050565b5f819050919050565b5f61482861482361481e846137d9565b614805565b6137d9565b9050919050565b5f819050919050565b6148418361480e565b61485561484d8261482f565b8484546147b4565b825550505050565b5f90565b61486961485d565b614874818484614838565b505050565b5b818110156148975761488c5f82614861565b60018101905061487a565b5050565b601f8211156148dc576148ad81614787565b6148b684614799565b810160208510156148c5578190505b6148d96148d185614799565b830182614879565b50505b505050565b5f82821c905092915050565b5f6148fc5f19846008026148e1565b1980831691505092915050565b5f61491483836148ed565b9150826002028217905092915050565b61492d8261411b565b67ffffffffffffffff8111156149465761494561397a565b5b6149508254614757565b61495b82828561489b565b5f60209050601f83116001811461498c575f841561497a578287015190505b6149848582614909565b8655506149eb565b601f19841661499a86614787565b5f5b828110156149c15784890151825560018201915060208501945060208101905061499c565b868310156149de57848901516149da601f8916826148ed565b8355505b6001600288020188555050505b505050505050565b5f606082019050614a065f830186614702565b614a13602083018561410c565b8181036040830152614a258184614135565b9050949350505050565b5f60c082019050614a425f83018961410c565b614a4f602083018861410c565b614a5c604083018761384a565b614a69606083018661384a565b8181036080830152614a7b8185614135565b905081810360a0830152614a8f8184613b77565b9050979650505050505050565b7f4e487b71000000000000000000000000000000000000000000000000000000005f52602160045260245ffd5b5f82825260208201905092915050565b5f614ae38261411b565b614aed8185614ac9565b9350614afd818560208601613b4f565b614b068161396a565b840191505092915050565b5f81519050919050565b5f82825260208201905092915050565b5f819050602082019050919050565b614b438161379e565b82525050565b604082015f820151614b5d5f850182614b3a565b506020820151614b706020850182614033565b50505050565b5f614b818383614b49565b60408301905092915050565b5f602082019050919050565b5f614ba382614b11565b614bad8185614b1b565b9350614bb883614b2b565b805f5b83811015614be8578151614bcf8882614b76565b9750614bda83614b8d565b925050600181019050614bbb565b5085935050505092915050565b5f60a083015f8301518482035f860152614c0f8282614ad9565b91505060208301518482036020860152614c298282614ad9565b91505060408301518482036040860152614c438282614b99565b9150506060830151614c586060860182614b3a565b5060808301518482036080860152614c708282614ad9565b9150508091505092915050565b5f604082019050614c905f830185614702565b8181036020830152614ca28184614bf5565b90509392505050565b5f81519050614cb9816137e2565b92915050565b5f60208284031215614cd457614cd3613777565b5b5f614ce184828501614cab565b91505092915050565b5f604082019050614cfd5f83018561384a565b614d0a602083018461384a565b9392505050565b5f604082019050614d245f83018561410c565b614d31602083018461384a565b9392505050565b5f81519050614d46816142a5565b92915050565b5f60208284031215614d6157614d60613777565b5b5f614d6e84828501614d38565b91505092915050565b614d8081613cab565b8114614d8a575f80fd5b50565b5f81519050614d9b81614d77565b92915050565b5f60208284031215614db657614db5613777565b5b5f614dc384828501614d8d565b91505092915050565b5f60e082019050614ddf5f83018a61410c565b614dec602083018961410c565b614df9604083018861384a565b614e06606083018761384a565b8181036080830152614e188186614135565b9050614e2760a0830185614702565b614e3460c0830184614702565b98975050505050505050565b5f604082019050614e535f83018561410c565b614e60602083018461410c565b9392505050565b7f4e487b71000000000000000000000000000000000000000000000000000000005f52603260045260245ffd5b5f81905092915050565b50565b5f614eac5f83614e94565b9150614eb782614e9e565b5f82019050919050565b5f614ecb82614ea1565b9150819050919050565b5f606082019050614ee85f83018661410c565b614ef5602083018561410c565b614f02604083018461384a565b949350505050565b7f4d7573742062652070726f706f736564206f776e6572000000000000000000005f82015250565b5f614f3e601683613b3f565b9150614f4982614f0a565b602082019050919050565b5f6020820190508181035f830152614f6b81614f32565b9050919050565b5f80fd5b5f80fd5b5f80fd5b5f8083356001602003843603038112614f9a57614f99614f72565b5b80840192508235915067ffffffffffffffff821115614fbc57614fbb614f76565b5b602083019250600182023603831315614fd857614fd7614f7a565b5b509250929050565b5f614fea8261377f565b9050919050565b614ffa81614fe0565b8114615004575f80fd5b50565b5f8135905061501581614ff1565b92915050565b5f602082840312156150305761502f613777565b5b5f61503d84828501615007565b91505092915050565b5f805f805f8060c087890312156150605761505f613777565b5b5f61506d89828a01615007565b965050602061507e89828a01615007565b955050604061508f89828a016137f8565b94505060606150a089828a016137f8565b935050608087013567ffffffffffffffff8111156150c1576150c061377b565b5b6150cd89828a01613a71565b92505060a087013567ffffffffffffffff8111156150ee576150ed61377b565b5b6150fa89828a016143a9565b9150509295509295509295565b5f819050815f5260205f209050919050565b601f82111561515a5761512b81615107565b61513484614799565b81016020851015615143578190505b61515761514f85614799565b830182614879565b50505b505050565b61516882613b35565b67ffffffffffffffff8111156151815761518061397a565b5b61518b8254614757565b615196828285615119565b5f60209050601f8311600181146151c7575f84156151b5578287015190505b6151bf8582614909565b865550615226565b601f1984166151d586615107565b5f5b828110156151fc578489015182556001820191506020850194506020810190506151d7565b868310156152195784890151615215601f8916826148ed565b8355505b6001600288020188555050505b505050505050565b7f4f6e6c792063616c6c61626c65206279206f776e6572000000000000000000005f82015250565b5f615262601683613b3f565b915061526d8261522e565b602082019050919050565b5f6020820190508181035f83015261528f81615256565b9050919050565b7f43616e6e6f74207472616e7366657220746f2073656c660000000000000000005f82015250565b5f6152ca601783613b3f565b91506152d582615296565b602082019050919050565b5f6020820190508181035f8301526152f7816152be565b9050919050565b7f4e487b71000000000000000000000000000000000000000000000000000000005f52601160045260245ffd5b5f615335826137d9565b9150615340836137d9565b9250828201905080821115615358576153576152fe565b5b92915050565b5f60a0820190506153715f83018861410c565b61537e602083018761410c565b61538b604083018661384a565b615398606083018561384a565b81810360808301526153aa8184614135565b90509695505050505050565b5f815190506153c48161389d565b92915050565b5f602082840312156153df576153de613777565b5b5f6153ec848285016153b6565b91505092915050565b5f60a0820190506154085f83018861410c565b615415602083018761410c565b81810360408301526154278186614065565b9050818103606083015261543b8185614065565b9050818103608083015261544f8184614135565b90509695505050505050565b5f60808201905061546e5f83018761410c565b61547b602083018661384a565b615488604083018561384a565b615495606083018461384a565b95945050505050565b5f6040820190508181035f8301526154b68185614065565b905081810360208301526154ca8184614065565b9050939250505056fea2646970667358221220537d83dce0777ee3d37f0d8185344a0534682afc06558c443da3cecda39a0e6064736f6c63430008180033","linkReferences":{}},"methodIdentifiers":{"acceptOwnership()":"79ba5097","balanceOf(address,uint256)":"00fdd58e","balanceOfBatch(address[],uint256[])":"4e1273f4","burn(address,uint256,uint256)":"f5298aca","burnBatch(address,uint256[],uint256[])":"6b20c454","ccipReceive((bytes32,uint64,bytes,bytes,(address,uint256)[]))":"85572ffb","crossChainTransferFrom(address,address,uint256,uint256,bytes,uint64,uint8)":"240b3b49","disableChain(uint64)":"41eade46","enableChain(uint64,address,bytes)":"0ce639c4","exists(uint256)":"4f558e79","isApprovedForAll(address,address)":"e985e9c5","mint(address,uint256,uint256,bytes,string)":"c1341c4f","mintBatch(address,uint256[],uint256[],bytes,string[])":"b942f8cb","owner()":"8da5cb5b","s_chains(uint64)":"5dc5ebdb","safeBatchTransferFrom(address,address,uint256[],uint256[],bytes)":"2eb2c2d6","safeTransferFrom(address,address,uint256,uint256,bytes)":"f242432a","setApprovalForAll(address,bool)":"a22cb465","setIssuer(address)":"55cc4e57","supportsInterface(bytes4)":"01ffc9a7","totalSupply()":"18160ddd","totalSupply(uint256)":"bd85b039","transferOwnership(address)":"f2fde38b","uri(uint256)":"0e89341c","withdraw(address)":"51cff8d9","withdrawToken(address,address)":"3aeac4e1"},"id":105}